:020000040800F2
:100000000007002035110008732A000809110008B4
:10001000091100080911000809110008000000007A
:10002000000000000000000000000000290E000891
:100030000911000800000000D50D00082D1B000864
:10004000D90E0008D90E0008D90E0008D90E0008F4
:10005000D90E0008D90E0008D90E0008D90E0008E4
:10006000D90E0008D90E0008D90E0008D90E0008D4
:10007000D90E0008D90E0008D90E0008D90E0008C4
:10008000D90E0008D90E0008D90E0008D90E0008B4
:10009000D90E0008D90E0008D90E0008D90E0008A4
:1000A000D90E0008D90E0008D90E0008D90E000894
:1000B000D90E0008D90E0008D90E0008D90E000884
:1000C000D90E0008D90E0008D90E0008D90E000874
:1000D000D90E0008D90E0008D90E0008D90E000864
:1000E000D90E0008D90E0008D90E0008D90E000854
:1000F000D90E0008D90E0008D90E0008D90E000844
:10010000D90E0008D90E0008D90E0008D90E000833
:10011000D90E0008D90E0008D90E0008D90E000823
:10012000D90E0008D90E0008D90E0008D90E000813
:10013000D90E0008D90E0008D90E0008D90E000803
:10014000D90E0008D90E0008D90E0008D90E0008F3
:10015000D90E0008D90E0008D90E0008D90E0008E3
:10016000D90E0008D90E0008D90E0008D90E0008D3
:10017000D90E0008D90E0008D90E0008D90E0008C3
:10018000D90E0008D90E0008D90E0008D90E0008B3
:10019000D90E0008D90E0008D90E0008D90E0008A3
:0C01A000D90E0008D90E0008D90E000886
:1001AC0053B94AB9002908BF00281CBF4FF0FF31D2
:1001BC004FF0FF3000F00CB8ADF1080C6DE904CE37
:1001CC0000F008F8DDF804E0DDE9022304B0704724
:1001DC00704700BF2DE9F04F07468C460846099E34
:1001EC0015463C461946002B40F0C6808242B2FAB6
:1001FC0082F746D94FB1C7F1200E24FA0EFE00FA51
:10020C0007F3BD404EEA030CBC404FEA15481FFAF9
:10021C0085FEBCFBF8F9220C08FB19C309FB0EFA8E
:10022C0042EA03439A4528D9EB1809F1FF3004D26E
:10023C009A4502D9A9F102002B44A3EB0A03A4B2FC
:10024C00B3FBF8F208FB123302FB0EFE44EA034444
:10025C00A64514D92C1902F1FF3303D2A64501D9B6
:10026C00931E2C44A4EB0E0443EA00401EB1FC4048
:10027C00002334607360BDE8F08F4846DDE7134619
:10028C00F0E702B9FFDE87BB831A01214FEA154E56
:10029C00AAB2B3FBFEFC200C0EFB1C330CFB02F8C9
:1002AC0040EA0343984563D9EB180CF1FF3004D2B4
:1002BC00984502D9ACF102002B44A3EB0803A4B27D
:1002CC00B3FBFEFC0EFB1C330CFB02F244EA0344B2
:1002DC00A2424FD92C190CF1FF3304D2A24202D9FD
:1002EC00ACF102032C44A41ABEE7C7F1200C20FA8F
:1002FC000CF800FA07F324FA0CFCBD404CEA03029C
:10030C004FEA154EABB2B8FBFEFC110C0EFB1C8079
:10031C000CFB03F941EA0040814504FA07F423D9A8
:10032C0028180CF1FF3104D2814502D9ACF102013D
:10033C002844A0EB090092B2B0FBFEFC0EFB1C00A3
:10034C000CFB03F842EA004398450FD9EB180CF16B
:10035C00FF3204D2984502D9ACF102022B44A3EB34
:10036C00080342EA014191E76146E2E76246F6E79B
:10037C006046A2E76346B6E7834205D90EB1C6E9EB
:10038C0000700021084676E7B3FA83F181B9834205
:10039C0001D3BA420AD8BC1A60EB030301209C4675
:1003AC00002E68D0C6E9004C002164E70846F7E748
:1003BC00C1F1200C8B4022FA0CF41C4302FA01F51B
:1003CC0000FA01F327FA0CF220FA0CFB4FEA14495D
:1003DC001343BBFBF9F81FFA84FE09FB18BB1A0C7C
:1003EC0008FB0EFA42EA0B42924507FA01F73ED996
:1003FC00A21808F1FF3004D2924502D9A8F10200EC
:10040C002244A2EB0A029BB2B2FBF9F809FB1822B8
:10041C0008FB0EFE43EA024296452AD9A21808F1BF
:10042C00FF3304D2964502D9A8F10203224443EAD1
:10043C000040A0FB0593A2EB0E029A42CE469846D2
:10044C0002D306D14F4504D2B9EB050E63EB040879
:10045C00013886B1B7EB0E0362EB080707FA0CFC08
:10046C00CB404CEA0303CF40C6E900379CE740463B
:10047C00C7E74346DBE73146FDE60000F8B5144C10
:10048C00204602F072FD08B32269A168136823F0BC
:10049C008003136020460B684FF4202207219847F5
:1004AC00002813DB0B4E0C4FA36880215B692046A0
:1004BC00984731460546384602F055FA002D05DBC3
:1004CC00002141F2883002F06FF8EDE7F8BD00BF73
:1004DC0078320008DA380008E83800080B68013375
:1004EC000B60014B1B68184700000020014B186083
:1004FC00704700BF000000201FB5002402460B46C9
:10050C00009403A90248039400F004F804B010BD51
:10051C00E90400082DE9F04F91B08B460290924609
:10052C001C4600259AF8000008B9284663E32528E4
:10053C000AF1010707D0029B594698470028C0F2E0
:10054C005A83013512E2182200210AA802F0ADFAF2
:10055C009AF80130252B78D0002210469646944606
:10056C001646394617F8013B2B2B00F09D8000F204
:10057C009480202B00F09B80232B00F09B802EB1CD
:10058C009DF8306046F004068DF83060BCF1000F29
:10059C0005D09DF8306046F008068DF83060BEF14D
:1005AC00000F05D09DF8306046F010068DF83060D5
:1005BC0028B19DF8300040F020008DF830002AB1B1
:1005CC009DF8302042F040028DF830209DF830200C
:1005DC0002F04400442803D16FF386128DF83020CA
:1005EC009DF830202A2B42F080028DF830207BD1F0
:1005FC009DF8312042F001024B1C8DF831201A7805
:10060C002E2A9DF831200CBF0121002161F34102FB
:10061C008DF8312074D15A782A2A6AD001330021FE
:10062C000A26184610F8012BA2F13007092F40F2C8
:10063C008E809DF830200E91C2F3400040EAD171BB
:10064C0061F341028DF830205AE00AF102078DF86F
:10065C0033309DF83130D90740F1498154F8049B6F
:10066C00B9F1000F07DA9DF8302042F004028DF842
:10067C003020C9F100095A0740F1428154F8048B2B
:10068C00B8F1000F80F241819DF831306FF34103D6
:10069C008DF831304FF0FF3837E12D2B0CD0302B4B
:1006AC007FF46DAF01225CE74FF0010C59E74FF07E
:1006BC00010E56E7012054E7012652E70CFB02021B
:1006CC00303A33461E4616F8010BA0F13007092FBD
:1006DC00F4D9994293D09DF830100D92D20F62F359
:1006EC0041018DF830108AE70B4600224FF00A0CBE
:1006FC00E8E79DF8312042F004028DF831200233F6
:10070C001F4617F8012B6C2A41D025D8682A2BD00C
:10071C006A2A46D04C2A4CD01F4617F8012B9DF85C
:10072C0031308DF83320782A00F2D980572A4DD8F1
:10073C00412A03D0453A022A00F2D1809DF832308A
:10074C00042262F302038DF8323001239EE006FB93
:10075C0001213039034664E7742A26D07A2ADBD18A
:10076C009DF8313006220DE05A78682A9DF8312028
:10077C0006D1012161F3C6028DF831209F1CCCE714
:10078C001346022262F3C6038DF83130C5E75A785E
:10079C006C2A9DF8312001D10421EBE7134603228A
:1007AC00F0E79DF831300522ECE79DF83130072257
:1007BC00E8E7BDF8303023F4F04323F0020343F4B0
:1007CC00804343F00203ADF83030A6E7A2F15801A4
:1007DC00202900F2848001A050F821F0AD08000817
:1007EC00EB080008EB080008EB080008EB08000811
:1007FC00EB080008EB080008EB080008EB08000801
:10080C0049070008EB080008AD0800086D0800084F
:10081C00490700084907000849070008EB080008C9
:10082C006D080008EB080008EB080008EB0800084E
:10083C00EB080008B5080008AD080008D10800084E
:10084C00EB080008EB080008D1080008EB080008CA
:10085C00AD080008EB080008EB080008AD0800081C
:10086C009DF83210012003F0780360F30201402B55
:10087C008DF8321002BF9DF8301041F001018DF857
:10088C003010632A31D1003B18BF01239DF8302072
:10089C00C2F340010B4363F341028DF83020D8E6DC
:1008AC009DF832100220DEE79DF8322003F0780329
:1008BC00A3F14000032161F3020243428DF8322080
:1008CC004341E3E79DF83220032113F0780F61F3E5
:1008DC0002028DF8322014BF01230023D6E79DF8C5
:1008EC00303043F001038DF830300023CEE79DF912
:1008FC003020002AB4BFDDF834904FF0FF39BAE64F
:10090C009B077FF5C7AEDDF838809DF831100023CA
:10091C00CDE90D339DF8323003F00703012BC1F301
:10092C00C30135D1CB1E042B22D8DFE803F0030919
:10093C000921210054F8043BDA17CDE90A3206E00C
:10094C00073424F00704F4E80223CDE90A239DF8C8
:10095C00303013F0030659D002983B4652465946A4
:10096C0002F05EF80028C0F246810544BA46D9E58B
:10097C0054F8043B01294FEAE372CDE90A3202D163
:10098C009DF92830D8E70229E1D1BDF92830D3E709
:10099C00022B29D1CB1E042B13D8DFE803F0030A5A
:1009AC000A12120022680A920023201D0B9304469F
:1009BC00CDE7E01D20F00700F0E80223CDE90A2383
:1009CC00F5E754F8043B0A9301294FF000030B930D
:1009DC0005D19DF828300A9300230B93B7E7022921
:1009EC00B5D1BDF82830F6E7042B09D1E31D23F06F
:1009FC00070303F10804D3E90023CDE90A23A6E792
:100A0C00032B04BF54F8043B0A93A0E79DF8330072
:100A1C007828ABD8622822D825283FF48CAD5828EA
:100A2C00A4D10DF126030093DDE90A0104AB0CAA55
:100A3C0001F0B0FF8246B8F1000F0DF126000CDB7F
:100A4C009DF83020A0EB0A036FF3861298458DF8C1
:100A5C00302002D9A8EB03030D9380463EE06338A7
:100A6C00152883D801A252F820F000BFF90A00081B
:100A7C005D0B00087909000879090008790900085C
:100A8C00790900085D0B000879090008790900084C
:100A9C007909000879090008B70B0008850B0008D4
:100AAC00890B00087909000879090008D10A0008A7
:100ABC0079090008850B00087909000879090008F4
:100ACC00850B0008B8F1000FDDF828A00ADB4146C1
:100ADC00504601F0D6FF0AEB00080026BAF1000FD1
:100AEC000CD143E7504601F0C5FFF4E70A9B8DF8A3
:100AFC00103000260DF1100A0DF11108A8EB0A03B5
:100B0C0006B101339DF83220D00668D50233520667
:100B1C000D9948BF0E9A0B4448BF9B18B9F1000FB2
:100B2C0076DD9DF83020A9EB0309C2F38003039313
:100B3C0053076DD4500661D546B1029B59463046D9
:100B4C009847002857DB039B01351E46302356E09F
:100B5C001E070FD413F0100618BF2026DDE90A2358
:100B6C00002BBFF65EAF524263EB4303CDE90A2381
:100B7C002D2656E72B26F1E7002652E70A9840B3BC
:100B8C000DF1260300930CAA04AB002101F002FF27
:100B9C00BDF8323003F0EF0343F4F04343F010039D
:100BAC008246ADF83230002645E70A9B07293FF60E
:100BBC00DDAEDFE801F00C04060C08080C0C1D700F
:100BCC00D4E61D80D2E6EA17C3E90052CEE61D60DA
:100BDC00CCE6DFF8C8A006460AF105088EE7110737
:100BEC0048BF013393E7184603935946029B984735
:100BFC000028039B04DA11B0BDE8F08F20234D448C
:100C0C004A46002AA5EB090109F1FF39EBDC0D4638
:100C1C0036B1029B5946304698470028EBDB01352C
:100C2C009DF83230D90601D41A0706D5029B5946D5
:100C3C00302098470028DEDB01359DF83230DB068A
:100C4C0007D59DF83300029B594698470028D2DB04
:100C5C0001350D9E2E44731B002B16DC0298434667
:100C6C005246594601F0DCFE0028C4DB0544A94479
:100C7C00A9EB0503002B7FF779AE029B5946202088
:100C8C0098470028B7DB0135F2E7029B5946302024
:100C9C0098470028AFDB0135DDE700BFF6380008C8
:100CAC004FF01002EFF3118382F31288BFF36F8FB2
:100CBC0083F31188BFF36F8F024B034A1A60002035
:100CCC00704700BF3C00002000093D000149102284
:100CDC000A60704710ED00E072B6404080F3118856
:100CEC00BFF36F8FBFF34F8F30BF62B6BFF36F8F01
:100CFC00704700BF43B2002B08DB012200F01F003D
:100D0C0002FA00F05B09024A42F82300704700BF68
:100D1C0000E100E043B2002BA8BF03F1604301F1F6
:100D2C000101B8BF064B4FEA0111ACBF03F561439B
:100D3C0000F00F00C9B2B4BF195483F80013704708
:100D4C0014ED00E030BFFFF7FDBF00BF0F4A08B540
:100D5C000F4B22F07F029A60BFF34F8FBFF36F8F60
:100D6C00D3F8882022F47002C3F88820EFF31483A0
:100D7C0023F0040383F31488BFF36F8F01F09EF804
:100D8C0001F090FC00F0C4F901F0DCF80000000860
:100D9C0000ED00E0094A0A49936809689967094916
:100DAC0058674B6843F080534B60002383F31188E2
:100DBC00BFF36F8F9368986F704700BFB802002025
:100DCC00C038000800ED00E012498A684FF030008E
:100DDC001044EFF3098C80E8F01F102080F3128888
:100DEC00BFF36F8F0C4F4FF000668A698A603E60CC
:100DFC00506F0023536780F3118804B5104600F040
:100E0C00CBF9BDE8044002F1300090E8F01F8CF300
:100E1C0009887047B802002004ED00E01EF0040FB2
:100E2C000CBFEFF30880EFF30980816911F8021C05
:100E3C000229FFD001B501F00EFE01BD42F8203CA5
:100E4C00009B42F81C3C0A49019B42F8183C029B4F
:100E5C0042F8143C21F001014FF0807342F8043C3D
:100E6C0042F8081C0023203A02654367704700BF14
:100E7C008D290008094A0346906870B113F1160FCA
:100E8C00406E05D0A0F140029A4205D8834203D2AD
:100E9C00814228BF0020704700207047B802002014
:100EAC0008B5094B98600D46144600F075F92046BC
:100EBC0085F30988002163B681F31188BFF36F8F26
:100ECC000022002301F05CFDB802002001B5EFF315
:100EDC000580A0F110004FEAC0000449014409C983
:100EEC009847BDE801400249084700000833000854
:100EFC00010F0008044B99689869884203D0034994
:100F0C004FF080520A607047B802002004ED00E0F8
:100F1C0038B51C4B14469A6A9A6A9A6A0546900729
:100F2C0020D5586B9A6A12061CD519B19A6A22F010
:100F3C0080029A629A6A9A6A9A6AD20615D49B6A55
:100F4C009B0712D400200F4B9A6A920642BF5A6A32
:100F5C0022F400525A629A6A42F0FF029A6200230B
:100F6C00237038BD6FF01500E4E7064B5B6819057C
:100F7C00E8D52946FFF77EFF0028E3D080F30988E7
:100F8C000220E0E700ED00E00D4B9A6A9A6A9A6A3B
:100F9C00920508D59A6B9A6A120404D518B19A6A0C
:100FAC0022F400429A62064B9A6A9A6AD20558BF9A
:100FBC009A6A9A6A002042F47F429A6208707047DB
:100FCC0000ED00E070B5484B5B688AB00D46C3F38A
:100FDC000803002686F31188BFF36F8F02F07F4160
:100FEC00B1F17F4F11D102F00C0108290DD011077E
:100FFC0001D4054601260022033B8DF80720032B64
:10100C006BD8DFE803F00455595D3546F3E7364BF2
:10101C00DC6A14F0020460D1DA6A002A15DBDA6AA1
:10102C00520012D5AA6932F8021C4DF60272914296
:10103C000AD093F828200AB30DF1070201212846A3
:10104C00FFF766FF044600E02C689DF807309BB95B
:10105C002022294602A801F01DFD099B002E3ED03E
:10106C00C3F3080222B96FEA53236FEA43230993AF
:10107C0002A9204601F0EDFC0AB070BD93F82920BE
:10108C002AB10DF107010120FFF77EFFDAE75A8D37
:10109C0092B2002AD9D09A6A9A6A9A6A9A6A9A6A19
:1010AC009A6A9A6A6FEA02426FEA12429A62CCE733
:1010BC000DF107020021C2E70DF107010020E3E763
:1010CC00094B9A6A9A6A9A6A9A6A9A6A9A6A9A6AA4
:1010DC006FEA02426FEA12429A620024B5E723F4E7
:1010EC00FF7323F00103C2E700ED00E0024A5369ED
:1010FC0043F010035361704700ED00E0EFF30880FC
:10110C00EFF3098101B57246FFF75CFF01BD00BF2B
:10111C00044800231021C21801335B2B82F8001302
:10112C00F9D1704700E100E0102080F311880848E5
:10113C004FF40461401880F30988EFF31480022106
:10114C00084380F31488BFF36F8FFFF7FFFD000097
:10115C00C0080020084B9B6883420BD1EFF305833A
:10116C0043B1064B5A6842F080525A605A6A22F4D4
:10117C0000425A6201F036BAB802002000ED00E0DD
:10118C00024B034A0348012100F06EB80000052011
:10119C00000000206C360008426E054B403A1A6085
:1011AC00044A4021C3E901121846012100F066B837
:1011BC008801002000000B15F0B51F4F00268E4251
:1011CC0001DB1046F0BD44689CB353B104F1FF3C05
:1011DC0014EA0C0F18D11F2C16D905681CEA050F40
:1011EC0012D1202C0568D0F808C0D2B20FD9B4F1B6
:1011FC00004F0ED8013CB4FA84F4C4F11F0464000F
:10120C00072A4CEA040406D96FF01502D9E7082422
:10121C00F6E73E24F4E725F01F05154345F01005CD
:10122C0044F00104C7F89820C7F89C500132C7F865
:10123C00A04001360C30C2E700ED00E0044B052263
:10124C00C3F89420BFF34F8FBFF36F8F704700BF6D
:10125C0000ED00E0BFF35F8F024B0022C3F8942037
:10126C00704700BF00ED00E010B5034C012322785D
:10127C00FFF7A2FF207010BDEC02002008B5094A50
:10128C0000231278FFF798FF10F1160F02D0064AD0
:10129C00072800DD08BDC2F89800C2F8A030013064
:1012AC00F6E700BFEC02002000ED00E014490868EE
:1012BC00082810B521D8FFF7CDFF124C4968002241
:1012CC00904201F10C0105D10F4B1870FFF7B6FFDE
:1012DC00002010BDC4F8982051F80C3C23F01F03DB
:1012EC00134343F01003C4F89C3051F8043C43F012
:1012FC000103C4F8A0300132E2E74FF0FF30E8E719
:10130C007836000800ED00E0EC020020014B18607C
:10131C00704700BF040000202DE9F8430D4F044630
:10132C000E4615464FF0010802F10409B44201DBE8
:10133C00BDE8F8837A6908FA04F333EA020207D1AC
:10134C007B6155F834301BB159F83410204698475E
:10135C000134EBE700040140044A01231168834087
:10136C000B431360024B1856FFF7C4BC000401403A
:10137C00293900081F2807DC044901220B6802FAEE
:10138C0000F023EA00000860704700BF0004014031
:10139C0003290FD8DFE801F0020F1723154B0122A8
:1013AC00996802FA00F021EA00019960DA6822EAF1
:1013BC000000D8607047012303FA00F00D4B9A68C7
:1013CC0002439A60F2E7012303FA00F0094BDA6852
:1013DC000243DA609A6822EA0000986070470123A1
:1013EC0003FA00F0034B9A6802439A60DA681043E0
:1013FC00DFE700BF00040140074B10B5044653F86B
:10140C00300028B943F8341003EBC4035A6010BD04
:10141C006FF00F00FBE700BF94010020034B00228C
:10142C0043F8302003EBC0035A607047940100204E
:10143C00024B1868C0F38020704700BF00100240B8
:10144C000B68013B072B14D80B4A32F91300002808
:10145C0011DB4968CBB203F1804303F50433C1F3CC
:10146C0002421868C1F304218A4002431A6000202A
:10147C0070476FF085007047C43800081A4B10B5E0
:10148C0014461A680B68072B14D0082B09D88BB19B
:10149C00013B072B0ED8DFE803F0210D1E1E0D14A7
:1014AC000D17582B0DD008D84C2B0AD0502B08D028
:1014BC00482B06D06FF085000FE05C2B01D0602B21
:1014CC00F7E72260002008E001F068FB48B101F06A
:1014DC0065FB2060F6E70020206010BD034B236005
:1014EC00F0E76FF00400F8E73C0000200024F40063
:1014FC0070B5384C384E00F089F800F005FCA36844
:10150C00364AC3F30313D35C20FA03F5B54202D871
:10151C00334800F047FCFFF78BFF012807D0236806
:10152C0043F480732360FFF783FF0128FBD1A3688A
:10153C0003F00C030C2B1AD1A36823F0F003A36067
:10154C00FFF776FF012807D0236843F480732360EC
:10155C00FFF76EFF0128FBD1A36823F0030343F0D0
:10156C000103A360A36803F00C03042BFAD12368D6
:10157C0023F080732360E36823F4C00343F48003F7
:10158C00E36000F031F8236843F080732360236834
:10159C009B01FCD5A36823F0F003A360A36843F080
:1015AC000303A360A36803F00C030C2BFAD1B54220
:1015BC0002D90B4800F0F6FB0A4B094A1A60A368E3
:1015CC0023F4E063A360A36823F46053A3600020BA
:1015DC0070BD00BF00100240FFB3C4049339000873
:1015EC0000B4C4043C000020054B0649DA681140E5
:1015FC00054A0A43DA60DA6842F08072DA607047B2
:10160C00001002408C80FFF902140002064B9A6D08
:10161C0042F080529A659B6D82B003F08053019327
:10162C00019B02B0704700BF0010024008B5084B88
:10163C000848186001F099FC38B10748FFF766FEBE
:10164C000548FEF753FF002008BD6FF01200FBE7C2
:10165C0014020020D8320008691600080A2838B590
:10166C00074D044604D1286883680D215B689847B0
:10167C0028688368E1B25B689847204638BD00BF94
:10168C001402002070B50546074C204601F06DFC95
:10169C0030B1A368294620461B68BDE87040184746
:1016AC006FF0120070BD00BFB831000808B5074AD2
:1016BC00036958605368406843F4007353600C30FE
:1016CC00FFF7E0FF00EAE07008BD00BF00700040CB
:1016DC00F7B50C461146B1F5001F476802691E4666
:1016EC0023D104F0030304339A000F23934043EAFD
:1016FC009403DAB23349023251F82220190C02EA6F
:10170C00134391FAA1F2B2FA82F2D340BA689A4228
:10171C0009D12046FFF72EFE2046FFF77FFE002161
:10172C002046FFF735FE00253EE0B1F5800F42D094
:10173C0025492046FFF760FE054600283ED1234A86
:10174C00BF6892E803006B4683E803001846FFF776
:10175C0099FFC0B904F0030104318B000F219940AB
:10176C0041EA9401CAB2920002F1804202F5803241
:10177C000B0C906893FAA3F3B3FA83F320EA1141AC
:10178C009F400F439760B6F1806F10D0B6F1C06FD9
:10179C000FD0B6F1007F14BF002102212046FFF7C5
:1017AC00F7FD2046FFF7D8FD284603B0F0BD012118
:1017BC00F4E70321F2E76FF08505F5E76FF00F050D
:1017CC00F2E700BF00000140BB2D000864360008A2
:1017DC00F7B5036946685C6877680D46204601F0EA
:1017EC00C4FBF8B1A368DB68E3B101AA3946204613
:1017FC009847002816DB3668104B019C9E424FEA36
:10180C00550011D1002319464FF480772A46E4FB8A
:10181C000701FEF7C5FC0A4BA0F540729A4201D8AD
:10182C0005B1F06003B0F0BD3368044423F4004309
:10183C00B4FBF5F4A4B23360F460F3E7008000402D
:10184C00FFFC0F002DE9F34144680769404DD4F8C3
:10185C0004807D600646284601F087FB002872D084
:10186C00AB6828461B68414698470546002861D15D
:10187C00014601AAA06901F05FFB002866DB019B11
:10188C002A461979186800F0F9F900285EDB2068FF
:10189C002168036823F00103036050E8003F43F024
:1018AC000C0340E80032002AF7D12369022B45D003
:1018BC00012B0ABF4FF4805000204FF4C0620B681C
:1018CC0023F0805323F4B053024313430B604B6853
:1018DC0023F440534B60237B2BB173681A689368D5
:1018EC0043F44073936039683046FFF771FF227DF3
:1018FC0023681AB19A6842F008029A60627D1AB1A4
:10190C005A6842F400425A60A27D1AB15A6842F4F5
:10191C0080325A60E27D1AB15A6842F400325A6041
:10192C001A6842F001021A60DA699102FCD5DA6990
:10193C005202FCD5284602B0BDE8F0814FF480502D
:10194C004FF48062BBE76FF01205F3E70546F1E751
:10195C00B83100082DE9F0470B7945680669012B71
:10196C000C461CD0022B0CBF4FF480684FF00008C3
:10197C0094F80590A779B9F1020F96BF494A4FF434
:10198C00005132F81910022F0CD0042F00F0848073
:10199C00002B14BF4FF4805E4FF0000E08E04FF4A4
:1019AC00C068E5E7002B0CBF4FF0805E4FF0000ED7
:1019BC00E279A3F1030A012A14BF4FF0000C4FF493
:1019CC00407CBAF1010F6AD90BB1042F67D02B6898
:1019DC00DFF8D4A0534502D119F0FD0F5FD0012FD1
:1019EC005DD9042F5BD0C2B1304FBB4213D0A7F5E9
:1019FC007447BB420FD007F58067BB420BD007F58D
:101A0C008067BB4207D007F58067BB4203D007F560
:101A1C004057BB4243D1012A41D11A6822F001023E
:101A2C001A601A6802F4C06290451FBF1A6822F44B
:101A3C00C06242EA08021A605A6802F440529142AB
:101A4C001FBF5F6827F440570F435F601A6802F0AE
:101A5C00102296451FBF196821F0102141EA0E0192
:101A6C0019609A68216802F4407294451FBF9A6805
:101A7C0022F4407242EA0C029A603368994203D015
:101A8C00FFF7A6FE236833602A68136843F001034E
:101A9C0013600020BDE8F0874FF4805E88E76FF09C
:101AAC008500F7E7D438000800800040003801407A
:101ABC004FF0E02310B59A6919699869094B11F434
:101ACC00803F094901D1824206D21A680C6822442F
:101ADC001A604FF0E02212691B680A681344181A46
:101AEC0010BD00BFB4020020B0020020094B102230
:101AFC0083F82320084B41F63F721A60074B0020F5
:101B0C0018604FF0E0235A6198611A6942F007029D
:101B1C001A61704700ED00E0B0020020B402002012
:101B2C0008B5FFF7C5FF0C4B0C4A18681168084440
:101B3C00106000221A600A4A13684FF4FA51C01A56
:101B4C00B0FBF1F001FB0033136000F089FEBDE83F
:101B5C000840FFF7CFB900BFB4020020AC02002050
:101B6C00A8020020F8B5314C59B1421C09D14FF0F4
:101B7C00E022136923F0010313614FF07F432360CC
:101B8C00F8BD431C256822D0012823DDB0F5036F76
:101B9C0022DC471E4FF01003EFF3118683F31288FB
:101BAC00BFF36F8FFFF784FF21494FF0E023002232
:101BBC00D3F818C00B6818441E4B08601A601E4BF3
:101BCC001A68831A0BD54FF4806323601AE04FF424
:101BDC000360DEE70027DDE74FF40367DAE74FF435
:101BEC00FA5E0EFB073303F5F953121A1F33B3FBDE
:101BFC00FEF30EFB0323B3F5806FE4D90F4A934237
:101C0C00E3D922604FF0E022246893699C4538BFE9
:101C1C00AC44013CACEB030C546160440024946173
:101C2C00086086F31188BFF36F8FA9E7B00200201C
:101C3C00AC020020B4020020A802002000DCFF004F
:101C4C0010B54FF01003EFF3118483F31288BFF338
:101C5C006F8FFFF72DFF074B074A1B6812689B1A03
:101C6C00034484F31188BFF36F8F4FF4FA50B3FB26
:101C7C00F0F010BDAC020020A80200202DE9F047C6
:101C8C00204F044600EBC1060025B44201D10020D0
:101C9C0014E02268D10602F01F0911D4656845F0E2
:101CAC002005C2F3471AC2F343220A2A27D857F851
:101CBC002280B8F1000F11D16FF01200BDE8F0874F
:101CCC00B9F1100F08D0B9F1110FEAD165682B05E5
:101CDC00E7D545F01005E4E73025E2E7404601F092
:101CEC0044F90028E8D04B462A460AF00F0140463A
:101CFC0001F070F8002804F10804C6DADEE76FF092
:101D0C001500DBE750380008224B9A68D96812F0AE
:101D1C000C0205D00C2A15D101F00301012918D1B0
:101D2C0019681D48090755BFD3F894101968C1F3F9
:101D3C000321C1F3031150F821004AB30C2A09D036
:101D4C0000207047042A22D0082A144818BF00200B
:101D5C0070470020DA6802F00302022A15D00F49FE
:101D6C00032A08BF0846D968DA68C2F30622424340
:101D7C00D868C0F34160C1F3021101300131400059
:101D8C00B2FBF1F2B2FBF0F070470548EBE7044808
:101D9C00704700BF001002407C38000800127A0027
:101DAC000024F4001E4B421E9A4233D81D4B1B6874
:101DBC0003F4C063B3F5007F0FD11B4B98421AD8C4
:101DCC001A4B984228D81A4B984227D8194B98424C
:101DDC0094BF00230123002011E0174B98420CD82C
:101DEC00A3F5F403A3F59053984215D8134B9842DE
:101DFC0014D8134BEBE70423EDE700230120114922
:101E0C000A6822F007021A430A600A6802F0070205
:101E1C00934200D0012070470323DCE70223DAE76A
:101E2C00FFB3C404007000400090D003006CDC02CF
:101E3C000048E8010024F40080BA8C01001BB700B4
:101E4C00808D5B00002002400E4B70B553F8204093
:101E5C00013053F82060A64200D870BDD4E900359B
:101E6C002846984765B1EB6830B10028B8BF4042AE
:101E7C00FF28A8BFFF2018705A7842F001025A7050
:101E8C000834E8E7AC38000808B50A4B01220220F8
:101E9C001A70FFF7D9FF00F057FD0320FFF7D4FFAE
:101EAC0000F0EAF8FEF7EAFA034A137B23F0010389
:101EBC00137308BDED0200200001002008B5034893
:101ECC00034A0021121A01F081F808BD800000209D
:101EDC00F002002070B5002386B00122CDE9042366
:101EEC00134E144D01930F22CDE9023212491823DF
:101EFC0003FB005506EBC01604464FF4C07000FB04
:101F0C0004110E4B00954FF4A072304600F082F88D
:101F1C00737B0B482C7523F0040373734FF4046329
:101F2C0003FB04041C44EE606C6006B070BD00BF83
:101F3C0080000020B802002040070020E12F00089C
:101F4C00C008002080B52C4BA6B083F308882B4D1D
:101F5C002B4E6B692B4F43F4007300246B61F02301
:101F6C0085F82230EC772C766C76AC7685F82040B0
:101F7C006B6A43F4E0236B62FFF7B8F8FEF7A6FE3A
:101F8C004FF0FF33AB62EB62FFF790F9FFF7F8F815
:101F9C0040F20113ADF8243006ABB360CDE91F4419
:101FAC00229400F0E1FF2046FFF74EFF0120164D72
:101FBC00FFF74AFF00F064FA144BB5610593012357
:101FCC0013490094CDE903434FF480623B46CDE9BD
:101FDC000144284600F01EF86A7B064622F00402F3
:101FEC0028466A7301F030F82046FFF773FF3A4633
:101FFC0031462846FEF754FF0011002000ED00E0AA
:10200C00B8020020951E000800010020A33900082A
:10201C00000300202DE9FF410E9E06730426467333
:10202C000D9E867300F158050F46D61DC0E9165556
:10203C000C9A002526F007064037C0E90655C0E982
:10204C0019768560C573C56606F1400802920B9A35
:10205C00019288440A9A009242460446FEF7EEFE2C
:10206C00044B65659B6803B11B6F2367404604B046
:10207C00BDE8F081B8020020F0B5224C224D87B0AB
:10208C002646AE4204F130040BD300F08FF81D4C01
:10209C001E4F0A26AC4220D307B0BDE8F04000F03A
:1020AC00D3B954F8043C059354F8103C049354F8F9
:1020BC00143C039354F8183C029354F81C3C0193C1
:1020CC0054F8203C009354E90C0154E90A23FFF71F
:1020DC00A1FF54F8303C5E65D2E7626A531C09D00C
:1020EC0022EAE27282FB062352EA0301206803D142
:1020FC0000F042F93034CDE73946183000F036FBA9
:10210C00F8E700BF80000020800000207530000838
:10211C0038B5074D2C6854B1FFF792FD054B0444BC
:10212C001C6128680021BDE8384000F0D5BF38BDDF
:10213C00E4020020B802002010B54FF01003EFF3BA
:10214C00118483F31288BFF36F8F0C4A0023136141
:10215C0000284FF00A0300FB03F309480ADC036074
:10216C00084B90681960FFF7D3FF84F31188BFF315
:10217C006F8F10BD022BB8BF0223F0E7B80200200E
:10218C00E4020020E002002049B9EFF3058030B9E9
:10219C00054B9A699B689A4201D0FEF7FBBD81F30F
:1021AC001188BFF36F8F7047B80200204FF01003F7
:1021BC00EFF3118183F31288BFF36F8F044B9A688E
:1021CC00D37B013BD37381F31188BFF36F8F7047BF
:1021DC00B802002038B502460C480D4D00F02EFF19
:1021EC00044600B9EC68AB684AB95A7BD20606D1F2
:1021FC00A26922B9DA897F2A01D9AB6138BD9C4228
:10220C0002D02046FFF784FFAC61F7E7D402002030
:10221C00B802002070B590F90D20437B002A0146CE
:10222C0004DA03F07F03437300F0E0FE4B7B154AA6
:10223C0063F07F034B73D2E9073402F11C05AB4208
:10224C001BD0D3B191F90E6093F90E0086420FD0DA
:10225C00801B00280CDD5868C1E900300160596012
:10226C009068431A5842BDE870405841FFF7B2BF1E
:10227C00A34202D01B68002BE6D1C1E900542160B7
:10228C001162EDE7B802002038B54FF01003EFF300
:10229C00118583F31288BFF36F8F174B174A9C6815
:1022AC0011688C4207D12046FFF732FF85F3118865
:1022BC00BFF36F8F38BD00211160114A1268C2B193
:1022CC00E2897F2A15D8627BD20612D10D4A94F985
:1022DC000E10126891420CDB0B4A944209D01A6919
:1022EC00824203DC2046FFF795FFDCE7121A1A61E5
:1022FC00DCE70022FBE700BFB8020020DC02002074
:10230C00E4020020E00200208000002070B490F96C
:10231C000D20437B002A2ADBDA0628D1826932BBE6
:10232C00144A63F07F034373D2E9073402F11C05AE
:10233C00AB4217D0B3B190F90E6093F90E108E42E8
:10234C000BD0891B002908DD5A68C0E900321060E7
:10235C00586070BC0020FFF73DBFA34202D01B6841
:10236C00002BEAD1C0E9005420601062F1E770BC88
:10237C00704700BFB802002010B54FF01002EFF309
:10238C00118482F31288BFF36F8F427B510704D400
:10239C0084F31188BFF36F8F10BD22F004024273D7
:1023AC00FFF7B4FF21460248BDE81040FFF7ECBE32
:1023BC00EE02002008B590F90D20437B002A01465F
:1023CC0004DA03F07F03437300F010FE044B9868AB
:1023DC00431A58425841BDE80840FFF7FBBE00BF06
:1023EC00B802002070B50446183000F05FFE4FF0C4
:1023FC001003EFF3118683F31288BFF36F8F94F9F8
:10240C000D20637B002A05DA03F07F0363732046FB
:10241C0000F0ECFD0B4D637BA86843F01003637375
:10242C00031B58425841FFF7D5FE86F31188BFF3C2
:10243C006F8FAB68A34203D1BDE8704000F0F4BDD0
:10244C0070BD00BFB802002010B54FF01003EFF3C1
:10245C00118483F31288BFF36F8F084B9A68D37B78
:10246C000133D3730020FFF7B5FE84F31188BFF35B
:10247C006F8FBDE8104000F0D7BD00BFB802002040
:10248C00044B002103F11C02C3E907220846FFF7A5
:10249C0053BE00BFB8020020F8B54FF01003EFF3A5
:1024AC00118583F31288BFF36F8F1A498868437BB9
:1024BC0003F07F03437300F099FD8B685A7B084649
:1024CC0062F07F025A7350F81C2F82421CD0DAB192
:1024DC000F6A93F90E6092F90E40A6420FD0A41B1E
:1024EC00002C0CDD5168C3E900210B605360012006
:1024FC00FFF770FE2846BDE8F840FEF74BBCBA4229
:10250C0002D01268002AE6D10A6AC3E900021360FD
:10251C000B62ECE7B802002050EA01032DE9F04110
:10252C0005460E4603D1FFF7B7FF002033E06FF0EE
:10253C000104241A4FF0FF3363EB0103012C73F1F8
:10254C00000302DA00F0E2FD44194FF01003EFF340
:10255C00118883F31288BFF36F8F104F104BB8683C
:10256C001860FFF727FFB8680E492A463346183023
:10257C0000F0FCF8BA68537B43F0100353734046E9
:10258C00FEF708FC00F0C2FD201A63EB03030128E0
:10259C0073F10003C9DBBDE8F08100BFB802002075
:1025AC00DC02002075300008B1F1FF3F08BFB0F12C
:1025BC00FF3F08B506D1074B9868FFF713FF4FF0A4
:1025CC00FF3008BDFFF7A8FF0A220023C117FDF753
:1025DC00E7FDF6E7B8020020014B9868704700BF92
:1025EC00B80200202DE9F04104464FF01003EFF340
:1025FC00118683F31288BFF36F8F037BD9070BD53A
:10260C0086F31188BFF36F8F404080F311884FF031
:10261C00040002DFBDE8F081437B1A0704D586F382
:10262C001188BFF36F8FF5E723F0200242F0080109
:10263C00D20920D14173A36813B1204600F0DEFC0F
:10264C0004F1180000F032FD04F158074FF00008B7
:10265C00A56DBD4200D0B5B90120FFF7BBFD104BF5
:10266C009B68A342DBD1EFF30583002BD7D1304617
:10267C00FEF790FBD3E703F05F0343F008034373CB
:10268C0000F0B4FCD7E7284600F0B8FC05F11800C0
:10269C0000F00CFDC5F878802846FFF737FED7E729
:1026AC00B802002008B50648064A0749121A00F07D
:1026BC008FFCBDE80840054A0549064800F088BC77
:1026CC000000002080000020F0390008000000000D
:1026DC00F039000800000020034B1B680BB9FFF712
:1026EC00AFBA0020704700BFE8020020104B10B5B5
:1026FC001C689C4208BF0024FFF7EEFFA4B1D4E98C
:10270C0004321B1A62EBE070B3F1004F70F100025F
:10271C000ADA0028ACBF18460020064B1B6913B11F
:10272C009842A8BF184610BD6FF00040F5E700BFF7
:10273C0040000020B802002030B5036868B10A4A96
:10274C005268904209D043B1D3E90421D0E9044541
:10275C00121941EB0501C3E90421426813605A6068
:10276C000023C0E9003330BD40000020B3F1FF3F2F
:10277C0008BFB2F1FF3FF8B504461F46154667D0B7
:10278C0081604FF01003EFF3118683F31288BFF3CF
:10279C006F8F6FF00102531B4FF0FF3C6CEB070384
:1027AC00002B1BDB2B4BD3E90013521A6CEB0303EE
:1027BC00551B63EB0703012D73F10002BCBF012510
:1027CC000023C0E904532448D0E9003C834218D1CB
:1027DC00C4E9000CCCF80040446026E0FFF77CFF15
:1027EC00013547F100072D1847EBE077C4E9045792
:1027FC00E9E7521A65EB07059C45C4E90425E7D0C7
:10280C001B68002BE4D0D3E90417D4E904258A42D1
:10281C0075EB070EEDDA8A1A67EB0505C3E904259B
:10282C005A68C4E9003214605C60036883420BD0C0
:10283C009C4209D1FFF75AFF18B1084B1B69834220
:10284C0002D00021FFF78EF986F31188BFF36F8F4A
:10285C00F8BD00BF8001002040000020B80200201D
:10286C002DE9F8430546FFF70FFD4FF01003EFF38A
:10287C00118483F31288BFF36F8F244EDFF890809E
:10288C003560244DD8F8000032684045D5E9001E6B
:10289C004FEAE2770BD050B1D0E9043C9A4277EB87
:1028AC000C0916DA9B1A6CEB070CC0E9043C5218A5
:1028BC004EEB0707C5E9002700253560FFF716FF2B
:1028CC002946FFF74FF984F31188BFF36F8FBDE8EA
:1028DC00F88359184EEBE377D31A336000220023A8
:1028EC00C0E90423C5E90017FFF726FF84F311881C
:1028FC00BFF36F8F836898474FF01003EFF3118489
:10290C0083F31288BFF36F8FBCE700BFE80200208F
:10291C00400000208001002010B54FF01003EFF3B1
:10292C00118483F31288BFF36F8FFFF789F9054A7F
:10293C00D2E90031C01841F1000184F31188BFF3D2
:10294C006F8F10BD80010020024A0349034800F03C
:10295C000AB800BFEE390008A8390008C8390008C9
:10296C007047002070470FB407B504A951F8040B49
:10297C000191FDF7C1FD03B05DF804EB04B07047A5
:10298C00044608B5084611461A46A047FFF724FE30
:10299C00FEF7E0FB2DE9F84F9A46D3786F2B804673
:1029AC000F461546A3F1410B29D024D8582B14BF40
:1029BC000A261026DDF82890324600234046394678
:1029CC00FDF7EEFB092AD4B21ED83034B045E4B280
:1029DC0077F1000309F8014D01D3D14511D82B78BB
:1029EC009B0605D5082E15D1AB7843F00803AB70C8
:1029FC004846BDE8F88F03F0F703702BD7E708269D
:102A0C00D8E780460F46D7E7BBF1190F94BF373490
:102A1C005734DBE7102EEBD1AB7843F01003E6E72D
:102A2C002DE9F0410746884615461E461446B44229
:102A3C00A4EB050002D33EB923782BB114F8010B9B
:102A4C004146B8470028F2DABDE8F0817047002013
:102A5C00704700F0A0BA0146006800F09CBA002153
:102A6C000120FFF7F6BF08B5FEF76CF9BDE808408A
:102A7C00FEF740BA034600201A5C02B970470130D9
:102A8C00FAE7034600201A5C0AB1884200D170476D
:102A9C000130F8E710B5431E0A44914200D110BD35
:102AAC0011F8014B03F8014FF7E7C9B20244034692
:102ABC00934200D1704703F8011BF9E74FF0FF3048
:102ACC007047002208B511460620FEF723F90022B4
:102ADC0011460720FEF71EF9002211460820FEF7CA
:102AEC0019F9002211460920FEF714F900221146AB
:102AFC000A20FEF70FF9002211461720FEF70AF9FB
:102B0C00002211462820FEF705F9002008BD0269B5
:102B1C0010210A20FEF700BC02690A210520FEF7ED
:102B2C00FBBB026905210420FEF7F6BB02690421F8
:102B3C000320FEF7F1BB026903210220FEF7ECBB78
:102B4C00026902210120FEF7E7BB02690121002086
:102B5C00FEF7E2BB0B68A3F14802182A9FBF03F1F2
:102B6C00804303F5043349681A689DBF0A4300206B
:102B7C001A606FF0850070470B68A3F14802182AA1
:102B8C009FBF03F1804303F5043349681A689DBF66
:102B9C008A4300201A606FF0850070470A20704746
:102BAC0043685B681B690B600020704743685B6877
:102BBC00586942400A4042405A61002070474368BD
:102BCC005B6800209961704743685B6800209962DC
:102BDC00704743685A6853694B40536100207047F3
:102BEC000369986830B558B10024814212D1086845
:102BFC00DD6854B98D42986000D1D860002008601F
:102C0C006AB9002030BD2846EFE78D42206008BF2E
:102C1C00DC60F3E705680446002DF4D13AB1D868BE
:102C2C009A680A6099600028EBD1D960EAE76FF0E6
:102C3C001500E7E7F0B54468012067688840C2F3E7
:102C4C00801627EA00078E403E43666090FAA0F794
:102C5C00B7FA87F7D4F808C04FF0030E7F000EFACE
:102C6C0007F72CEA070C90FAA0F7B7FA87F7C2F32C
:102C7C00C1167F00BE4046EA0C06A66090FAA0F68C
:102C8C00B6FA86F6E76876000EFA06F627EA060725
:102C9C0090FAA0F6B6FA86F602F030057600C2F38A
:102CAC004122B2403A43202DE26015D107292BDC9A
:102CBC0090FAA0F2216A2AB3B2FA82F292000F269D
:102CCC0006FA02F221EA020190FAA0F2B2FA82F2BA
:102CDC00920093400B43236290FAA0F3B3FA83F370
:102CEC00226890FAA0F05B000321B0FA80F02D0965
:102CFC0001FA03F3400022EA030305FA00F018433B
:102D0C002060F0BD2A46D9E7020A666A92FAA2F15F
:102D1C0081B1B1FA81F189000F2792FAA2F2B2FACD
:102D2C0082F207FA01F1920026EA010193400B436B
:102D3C006362D1E72946EEE713469A0310B51AD51C
:102D4C009C0711D55A072FD55022DC060ED542F41C
:102D5C00007213F4002F44681CD15B0314D5646813
:102D6C0001238B40A3620FE01022EEE79C06F0D506
:102D7C0042F48062EDE7DC0311D5DA0611D413F0CE
:102D8C00200218BF4FF4806240680023FFF752FF07
:102D9C00002010BD646801238B40A361F4E730224E
:102DAC00F2E74FF40072EFE76FF08500F1E70B46A6
:102DBC00896870B569B101255E680C6885408A68C0
:102DCC002A4002D04B683046984714B121462468FB
:102DDC00F5E770BDF8B51F46044640680E4615462B
:102DEC00FFF728FF112F08D1012303FA06F66368B9
:102DFC005B682A054CBF9E619E620020F8BD43684B
:102E0C001B68D869DA69D107DA69C0F3C00048BF1A
:102E1C0040F002009207DA6948BF40F00400D10587
:102E2C0042BF4FF4807240F008001A62C20744BFE0
:102E3C0008221A62810744BF01221A62420744BF6A
:102E4C0002221A6204221A62704710B540680268A6
:102E5C00D3691B06FCD54FF01002EFF3118382F3FC
:102E6C001288BFF36F8F0268D469240604D483F3ED
:102E7C001188BFF36F8FEAE789B2118583F311884C
:102E8C00BFF36F8F10BD43681B68DA69100744BF2E
:102E9C0008221A62DA69920643BF9B8C0B700020E1
:102EAC004FF0FF30704703691B680B6043681A686A
:102EBC00136803F4C063B3F5806F2DD0A3F5C06025
:102ECC00434243410B71536803F44053B3F5805FA5
:102EDC0024D0B3F5405F23D0002B14BF0323012370
:102EEC004B711068136800F01020B0F5805F03F48C
:102EFC00C06317D0B0F1805F19D1002B0CBF022337
:102F0C0001238B71936803F44073A3F54072534211
:102F1C005341CB71002070470223D3E70023DFE736
:102F2C000223DDE7002B14BF03230423E9E7002B66
:102F3C0014BF02230323E4E730B50368136003795D
:102F4C0003F10053013BDB00056814681D44AC42DF
:102F5C0002D96FF0010030BD65798D4202D0083482
:102F6C001460F1E70020F6E7704738B1C3681888A1
:102F7C00C0F30800A0F580735842584170474FF0D9
:102F8C001002EFF3118382F31288BFF36F8FFEE709
:102F9C0008B5FFF7F4FFF8B505460E464FF01003E1
:102FAC00EFF3118783F31288BFF36F8FFFF714FBD6
:102FBC00314604462846FFF7EBFF87F31188BFF331
:102FCC006F8F2046BDE8F840FEF7C4B8FFF76DBD23
:102FDC00FFF760BD08B54FF01002EFF3118382F3D9
:102FEC001288BFF36F8FFDF777FEF4E7D0E900325C
:102FFC0013605A600023C0E90033704708B5FFF72F
:10300C00F5FF437B23F0020343730023836008BD69
:10301C00034620B9EFF305820AB9FDF7BBBE83F373
:10302C001188BFF36F8F70474FF01003EFF31180CF
:10303C0083F31288BFF36F8FFFF7EABF0346006874
:10304C00834208BF0020704710B54FF01003EFF318
:10305C00118483F31288BFF36F8FFFF757F984F352
:10306C001188BFF36F8F10BD10B501464FF01003E0
:10307C00EFF3118483F31288BFF36F8F10F80B3CBE
:10308C0013F0280F0DD151F8103C18380BB1FFF785
:10309C00B5FF11F80B3C23F0140301F80B3CFFF7C0
:1030AC0035F984F31188BFF36F8F10BD10B54FF055
:1030BC001002EFF3118482F31288BFF36F8F036851
:1030CC003BB1FFF739FB002084F31188BFF36F8FFE
:1030DC0010BD6FF01500F7E770B504460D464FF0C4
:1030EC001003EFF3118683F31288BFF36F8FFFF792
:1030FC00FDFA012805DDA04203DB29462046FEF738
:10310C0031FD86F31188BFF36F8F70BD08B5FFF7E3
:04311C0003FC08BDEB
:08312000C0D0FF7F0100000098
:10312800AD0C0008000000005B2A00080000000049
:10313800FD140008B8310008CF2A0008D031000873
:10314800B9160008E8310008B9160008003200086E
:10315800B916000818320008B916000830320008FD
:10316800B916000848320008B9160008603200088D
:10317800B916000878320008B9160008903200081D
:10318800B9160008A832000851180008C032000813
:1031980051180008D832000851180008F032000809
:1031A8003916000800000000F91A000800000000A5
:1031B8003939000800000000080000204C000020F9
:1031C80000000000463600080B3900080000000027
:1031D800000000004800002094010020403600084C
:1031E80046390008383700084C37000850000020DE
:1031F80098020020383600084C39000824370008A7
:103208004C3700085400002088020020303600089F
:1032180052390008103700084C37000858000020C1
:10322800780200202836000858390008FC360008C3
:103238004C3700085C000020680200202036000897
:103248005E390008E83600084C37000860000020A6
:10325800580200201836000864390008D4360008DF
:103268004C3700086400002048020020103600088F
:103278006A390008C03600084C370008680000208A
:10328800380200200836000870390008AC360008FB
:103298004C3700086C000020280200200036000887
:1032A80076390008983600084C370008700000206E
:1032B80018020020F83500087C390008203800087A
:1032C8003C3800087400002034000020F035000865
:1032D80083390008043800083C38000878000020CA
:1032E8002C000020E83500088C390008E837000871
:1032F8003C3800087C00002024000020E03500084D
:10330800000000006B2A0008000000006B2A00087B
:10331800000000006B2A0008000000006B2A00086B
:10332800000000006B2A0008000000006B2A00085B
:10333800D0310008572B0008D03100084D2B000869
:10334800D0310008432B0008D0310008392B000881
:10335800D03100082F2B0008000000006B2A00085D
:10336800000000006B2A0008000000006B2A00081B
:10337800000000006B2A0008000000006B2A00080B
:10338800000000006B2A0008000000006B2A0008FB
:10339800000000006B2A0008000000006B2A0008EB
:1033A800000000006B2A0008000000006B2A0008DB
:1033B800000000006B2A0008D0310008252B000807
:1033C800000000006B2A0008000000006B2A0008BB
:1033D800000000006B2A0008000000006B2A0008AB
:1033E800000000006B2A0008000000006B2A00089B
:1033F800000000006B2A0008000000006B2A00088B
:10340800000000006B2A0008000000006B2A00087A
:10341800000000006B2A0008000000006B2A00086A
:10342800000000006B2A0008000000006B2A00085A
:10343800000000006B2A0008000000006B2A00084A
:10344800D03100081B2B0008000000006B2A000880
:10345800000000006B2A0008000000006B2A00082A
:10346800000000006B2A0008000000006B2A00081A
:10347800000000006B2A0008000000006B2A00080A
:10348800000000006B2A0008000000006B2A0008FA
:10349800000000006B2A0008000000006B2A0008EA
:1034A800000000006B2A0008000000006B2A0008DA
:1034B800000000006B2A0008000000006B2A0008CA
:1034C800000000006B2A0008000000006B2A0008BA
:1034D800000000006B2A0008000000006B2A0008AA
:1034E800000000006B2A0008000000006B2A00089A
:1034F800000000006B2A0008000000006B2A00088A
:10350800000000006B2A0008000000006B2A000879
:10351800000000006B2A0008000000006B2A000869
:10352800000000006B2A0008000000006B2A000859
:10353800000000006B2A0008000000006B2A000849
:10354800000000006B2A0008000000006B2A000839
:10355800000000006B2A0008000000006B2A000829
:10356800000000006B2A0008000000006B2A000819
:10357800000000006B2A0008000000006B2A000809
:10358800000000006B2A0008000000006B2A0008F9
:10359800000000006B2A0008000000006B2A0008E9
:1035A800000000006B2A0008000000006B2A0008D9
:1035B800000000006B2A0008000000006B2A0008C9
:1035C800000000006B2A0008000000006B2A0008B9
:0835D800000000006B2A00084E
:1035E000010000800080FF7F010000800080FF7FDD
:1035F000010000800080FF7F010000800080FF7FCD
:10360000010000800080FF7F010000800080FF7FBC
:10361000010000800080FF7F010000800080FF7FAC
:10362000010000800080FF7F010000800080FF7F9C
:10363000010000800080FF7F010000800080FF7F8C
:1036400000800080FF7F0080008007000B000800E2
:103650000D000300040005000C0009000E00060028
:043660000A00FF7FDE
:1036640060000000010000000000002000000000D5
:1036740000000B060200000080360008000000086D
:10368400FC38000826000207000000200439000866
:1036940024000B11FFFF00000000004800000000A0
:1036A4004C00000001000000FFFF0000000400487F
:1036B400010000004C00000002000000FFFF0000B9
:1036C40000080048020000004C0000000400000054
:1036D400FFFF0000000C0048030000004C00000045
:1036E40008000000FFFF0000001000480400000074
:1036F4004C00000010000000FFFF00000014004810
:10370400050000004C00000020000000FFFF000046
:1037140000180048060000004C00000040000000B3
:10372400FFFF0000001C0048070000004C000000E0
:1037340080000000FFFF0000002000480800000097
:103744004C00000000010000452D0008AD2B0008CE
:10375400B92B0008CB2B0008D52B0008DF2B000861
:10376400DD160008ED2B000800000000B837000843
:1037740001000000C037000801000000C83700083D
:1037840001000000A706000000020000C7060000B8
:1037940000000000070700000002000027070000E7
:1037A40000000000E80C000000020000080D00000A
:1037B4000000000088370008020000009837000865
:1037C40002000000A83700080200000058000000B2
:1037D400000002005C00000001000000580000002E
:1037E4000000040000440040D0370008010000003D
:1037F4000000000000000000000000007037000816
:1038040000800040D83700080100000000000000DC
:10381400000000000000000080370008004800405D
:10382400E037000801000000000000000000000074
:103834000000000078370008932E0008572E000877
:103844000B2E000861190008B32E0008A8320008E6
:1038540090320008783200086032000848320008CC
:10386400303200081832000800320008E83100083D
:103874000000000000000000A0860100400D0300CD
:10388400801A060000350C0040420F0080841E00A0
:1038940000093D0000127A000024F40000366E0195
:1038A4000048E801006CDC0228310008B03100084F
:1038B400B8310008B8310008B8310008F5FFFFFF3F
:1038C40000007AFF7AFF7AFF7AFF00000000000010
:1038D4000010000000306E75636C656F5F6C3439E6
:1038E400367A6700546573742054657874202573A0
:1038F4000A00286E696C2900464C4153485F300029
:103904005352414D5F3000696E7465727275707404
:103914002D636F6E74726F6C6C657240343030312D
:103924003034303000060708090A1717171717280C
:1039340028282828287263634034303032313030EC
:1039440030004750494F49004750494F48004750BD
:10395400494F47004750494F46004750494F45009B
:103964004750494F44004750494F43004750494F3F
:1039740042004750494F4100554152545F33004C77
:1039840050554152545F3100554152545F3200004A
:103994000000000000000001020304060708096D8E
:1039A40061696E007A65706879722D76332E312ED6
:1039B400302D3737312D67323266643235336665E0
:1039C400616432002A2A2A20426F6F74696E67206C
:1039D4005A6570687972204F53206275696C64204F
:0C39E4002573202573202A2A2A0A0000DF
:1039F0006F290008C92A0008612B0008852B0008E0
:103A00000000000089140008000000000000000011
:103A10004D14000800C201000000000000C20100B7
:103A20000000000000C201000000000000093D008D
:083A30004000002040000020CE
:103A3800000000000000000000000000000000007E
:103A4800000000000000000000000000000000006E
:103A5800000000000000000000000000000000005E
:083A6800000000000000000056
:0400000508001135A9
:00000001FF
