:020000040800F2
:10000000800F00202933000821B60008FD320008C7
:10001000FD320008FD320008FD320008000000003B
:100020000000000000000000000000001130000887
:10003000FD32000800000000BD2F00080D3E000842
:10004000C1300008C1300008C1300008C1300008CC
:10005000C1300008C1300008C1300008C1300008BC
:10006000C1300008C1300008C1300008C1300008AC
:10007000C1300008C1300008C1300008C13000089C
:10008000C1300008C1300008C1300008C13000088C
:10009000C1300008C1300008C1300008C13000087C
:1000A000C1300008C1300008C1300008C13000086C
:1000B000C1300008C1300008C1300008C13000085C
:1000C000C1300008C1300008C1300008C13000084C
:1000D000C1300008C1300008C1300008C13000083C
:1000E000C1300008C1300008C1300008C13000082C
:1000F000C1300008C1300008C1300008C13000081C
:10010000C1300008C1300008C1300008C13000080B
:10011000C1300008C1300008C1300008C1300008FB
:10012000C1300008C1300008C1300008C1300008EB
:10013000C1300008C1300008C1300008C1300008DB
:10014000C1300008C1300008C1300008C1300008CB
:10015000C1300008C1300008C1300008C1300008BB
:10016000C1300008C1300008C1300008C1300008AB
:10017000C1300008C1300008C1300008C13000089B
:10018000C1300008C1300008C1300008C13000088B
:10019000C1300008C1300008C1300008C13000087B
:0C01A000C1300008C1300008C130000868
:1001AC00FFFFFFFFFFFFFFFFFFFFFFFFFFFFFFFF53
:0401BC00FFFFFFFF43
:1001C00090F800F06DE9024520F007016FF0000C97
:1001D00010F0070491F820F040F049804FF000043F
:1001E0006FF00700D1E9002391F840F000F108001A
:1001F00082FA4CF2A4FA8CF283FA4CF3A2FA8CF352
:100200004BBBD1E9022382FA4CF200F10800A4FAB8
:100210008CF283FA4CF3A2FA8CF3E3B9D1E904230C
:1002200082FA4CF200F10800A4FA8CF283FA4CF343
:10023000A2FA8CF37BB9D1E9062301F1200182FAFD
:100240004CF200F10800A4FA8CF283FA4CF3A2FA03
:100250008CF3002BC6D0002A04BF04301A4612BA11
:10026000B2FA82F2FDE8024500EBD2007047D1E914
:10027000002304F00305C4F100004FEAC50514F0A3
:10028000040F91F840F00CFA05F562EA05021CBF74
:1002900063EA050362464FF00004A9E7000000008E
:1002A00001F0FF01102A2BDB10F0070F08D010F827
:1002B000013B013A8B422DD010F0070F42B3F6D12B
:1002C000F0B441EA012141EA014122F007047FF044
:1002D00000070023F0E80256083C85EA010586EA9B
:1002E000010685FA47F5A3FA87F586FA47F6A5FAD7
:1002F00087F68EB9EED1F0BC01F0FF0102F00702E3
:1003000032B110F8013B013A83EA010313B1F8D18D
:100310000020704701387047002D06BF354603386E
:10032000073815F0010F07D1013015F4807F02BFA7
:10033000013015F4C03F0130F0BC0138704700BFF8
:1003400081F0004102E000BF83F0004330B54FEA86
:1003500041044FEA430594EA050F08BF90EA020FF3
:100360001FBF54EA000C55EA020C7FEA645C7FEA86
:10037000655C00F0E2804FEA5454D4EB5555B8BFA9
:100380006D420CDD2C4480EA020281EA030382EA1A
:10039000000083EA010180EA020281EA0303362DAC
:1003A00088BF30BD11F0004F4FEA01314FF4801C7F
:1003B0004CEA113102D0404261EB410113F0004F91
:1003C0004FEA03334CEA133302D0524263EB430348
:1003D00094EA050F00F0A780A4F10104D5F1200EE6
:1003E0000DDB02FA0EFC22FA05F2801841F1000141
:1003F00003FA0EF2801843FA05F359410EE0A5F115
:1004000020050EF1200E012A03FA0EFC28BF4CF045
:10041000020C43FA05F3C01851EBE37101F00045FB
:1004200007D54FF0000EDCF1000C7EEB00006EEB08
:100430000101B1F5801F1BD3B1F5001F0CD3490892
:100440005FEA30004FEA3C0C04F101044FEA4452E9
:1004500012F5800F80F09A80BCF1004F08BF5FEA70
:10046000500C50F1000041EB045141EA050130BD50
:100470005FEA4C0C404141EB0101013C28BFB1F562
:10048000801FE9D291F0000F04BF01460020B1FAAD
:1004900081F308BF2033A3F10B03B3F120020CDA80
:1004A0000C3208DD02F1140CC2F10C0201FA0CF05E
:1004B00021FA02F10CE002F11402D8BFC2F1200CC3
:1004C00001FA02F120FA0CFCDCBF41EA0C01904079
:1004D000E41AA2BF01EB0451294330BD6FEA0404C2
:1004E0001F3C1CDA0C340EDC04F11404C4F12002AD
:1004F00020FA04F001FA02F340EA030021FA04F3BF
:1005000045EA030130BDC4F10C04C4F1200220FA15
:1005100002F001FA04F340EA0300294630BD21FA53
:1005200004F0294630BD94F0000F83F4801306BF19
:1005300081F480110134013D4EE77FEA645C18BF0D
:100540007FEA655C29D094EA050F08BF90EA020FA4
:1005500005D054EA000C04BF1946104630BD91EA9C
:10056000030F1EBF0021002030BD5FEA545C05D19F
:100570004000494128BF41F0004130BD14F58004DE
:100580003CBF01F5801130BD01F0004545F0FE4152
:1005900041F470014FF0000030BD7FEA645C1ABF87
:1005A000194610467FEA655C1CBF0B46024650EABE
:1005B000013406BF52EA033591EA030F41F40021EA
:1005C00030BD00BF90F0000F04BF0021704730B570
:1005D0004FF4806404F132044FF000054FF0000145
:1005E00050E700BF90F0000F04BF0021704730B506
:1005F0004FF4806404F1320410F0004548BF4042DB
:100600004FF000013EE700BF42004FEAE2014FEA2F
:1006100031014FEA02701FBF12F07F4393F07F4F0A
:1006200081F06051704732F07F4208BF704793F00D
:100630007F4F04BF41F40021704730B54FF4607420
:1006400001F0004521F000411CE700BF50EA010223
:1006500008BF704730B54FF000050AE050EA0102CC
:1006600008BF704730B511F0004502D5404261EB3C
:1006700041014FF4806404F132045FEA915C3FF47D
:10068000D8AE4FF003025FEADC0C18BF03325FEA1A
:10069000DC0C18BF033202EBDC02C2F1200300FACB
:1006A00003FC20FA02F001FA03FE40EA0E0021FAF0
:1006B00002F11444BDE600BF70B54FF0FF0C4CF4DE
:1006C000E06C1CEA11541DBF1CEA135594EA0C0F90
:1006D00095EA0C0F00F0DEF82C4481EA030621EACB
:1006E0004C5123EA4C5350EA013518BF52EA033506
:1006F00041F4801143F4801338D0A0FB02CE4FF0B8
:100700000005E1FB02E506F00042E0FB03E54FF0E7
:100710000006E1FB03569CF0000F18BF4EF0010EDF
:10072000A4F1FF04B6F5007F64F5407404D25FEADB
:100730004E0E6D4146EB060642EAC62141EA55518E
:100740004FEAC52040EA5E504FEACE2EB4F1FD0CD0
:1007500088BFBCF5E06F1ED8BEF1004F08BF5FEA4E
:10076000500E50F1000041EB045170BD06F0004600
:1007700046EA010140EA020081EA0301B4EB5C04AD
:10078000C2BFD4EB0C0541EA045170BD41F48011A5
:100790004FF0000E013C00F3AB8014F1360FDEBFCA
:1007A000002001F0004170BDC4F10004203C35DAA6
:1007B0000C341BDC04F11404C4F1200500FA05F329
:1007C00020FA04F001FA05F240EA020001F00042CA
:1007D00021F0004110EBD37021FA04F642EB060140
:1007E0005EEA430E08BF20EAD37070BDC4F10C046A
:1007F000C4F1200500FA04F320FA05F001FA04F22E
:1008000040EA020001F0004110EBD37041F1000119
:100810005EEA430E08BF20EAD37070BDC4F1200524
:1008200000FA05F24EEA020E20FA04F301FA05F28C
:1008300043EA020321FA04F001F0004121FA04F234
:1008400020EA020000EBD3705EEA430E08BF20EA04
:10085000D37070BD94F0000F0FD101F0004640003E
:1008600041EB010111F4801F08BF013CF7D041EAC0
:10087000060195F0000F18BF704703F000465200C4
:1008800043EB030313F4801F08BF013DF7D043EA95
:100890000603704794EA0C0F0CEA135518BF95EA4B
:1008A0000C0F0CD050EA410618BF52EA4306D1D1D2
:1008B00081EA030101F000414FF0000070BD50EAF1
:1008C000410606BF1046194652EA430619D094EA7B
:1008D0000C0F02D150EA013613D195EA0C0F05D165
:1008E00052EA03361CBF104619460AD181EA0301B9
:1008F00001F0004141F0FE4141F470014FF0000071
:1009000070BD41F0FE4141F4780170BD70B54FF00B
:10091000FF0C4CF4E06C1CEA11541DBF1CEA13558B
:1009200094EA0C0F95EA0C0F00F0A7F8A4EB05046D
:1009300081EA030E52EA03354FEA013100F0888064
:100940004FEA03334FF0805545EA131343EA12632D
:100950004FEA022245EA111545EA10654FEA0026E2
:100960000EF000419D4208BF964244F1FD0404F59B
:10097000407402D25B084FEA3202B61A65EB0305F7
:100980005B084FEA32024FF480104FF4002CB6EBB4
:10099000020E75EB030E22BFB61A754640EA0C0034
:1009A0005B084FEA3202B6EB020E75EB030E22BF74
:1009B000B61A754640EA5C005B084FEA3202B6EBB5
:1009C000020E75EB030E22BFB61A754640EA9C0074
:1009D0005B084FEA3202B6EB020E75EB030E22BF44
:1009E000B61A754640EADC0055EA060E18D04FEA02
:1009F000051545EA16754FEA06164FEAC30343EAA2
:100A000052734FEAC2025FEA1C1CC0D111F4801F6E
:100A10000BD141EA00014FF000004FF0004CB6E767
:100A200011F4801F04BF01430020B4F1FD0C88BF06
:100A3000BCF5E06F3FF6AFAEB5EB030C04BFB6EB11
:100A4000020C5FEA500C50F1000041EB045170BD04
:100A50000EF0004E4EEA113114EB5C04C2BFD4EB31
:100A60000C0541EA045170BD41F480114FF0000EB5
:100A7000013C90E645EA060E8DE60CEA135594EA31
:100A80000C0F08BF95EA0C0F3FF43BAF94EA0C0F34
:100A90000AD150EA01347FF434AF95EA0C0F7FF4A9
:100AA00025AF104619462CE795EA0C0F06D152EAFD
:100AB00003353FF4FDAE1046194622E750EA4106E1
:100AC00018BF52EA43067FF4C5AE50EA41047FF4F2
:100AD0000DAF52EA43057FF4EBAE12E753B94AB9C2
:100AE000002908BF00281CBF4FF0FF314FF0FF3036
:100AF00000F00CB8ADF1080C6DE904CE00F068F917
:100B0000DDF804E0DDE9022304B07047704700BF60
:100B10004FF0FF3C06E000BF4FF0010C02E000BFC9
:100B20004FF0010C4DF804CD4FEA410C7FEA6C5CAC
:100B30004FEA430C18BF7FEA6C5C1BD001B050EA4F
:100B4000410C0CBF52EA430C91EA030F02BF90EA3A
:100B5000020F0020704710F1000F91EA030F58BFF9
:100B6000994208BF90422CBFD8176FEAE37040F05B
:100B7000010070474FEA410C7FEA6C5C02D150EAF9
:100B8000013C07D14FEA430C7FEA6C5CD6D152EAB4
:100B9000033CD3D05DF8040B704700BF8446104679
:100BA00062468C461946634600E000BF01B5FFF778
:100BB000B7FF002848BF10F1000F01BD4DF808ED48
:100BC000FFF7F4FF0CBF012000205DF808FB00BF19
:100BD0004DF808EDFFF7EAFF34BF012000205DF873
:100BE00008FB00BF4DF808EDFFF7E0FF94BF0120C0
:100BF00000205DF808FB00BF4DF808EDFFF7CEFFC1
:100C000094BF012000205DF808FB00BF4DF808EDFF
:100C1000FFF7C4FF34BF012000205DF808FB00BFD0
:100C2000844641EA000313F003036DD1403A41D3F7
:100C300051F8043B40F8043B51F8043B40F8043BB6
:100C400051F8043B40F8043B51F8043B40F8043BA6
:100C500051F8043B40F8043B51F8043B40F8043B96
:100C600051F8043B40F8043B51F8043B40F8043B86
:100C700051F8043B40F8043B51F8043B40F8043B76
:100C800051F8043B40F8043B51F8043B40F8043B66
:100C900051F8043B40F8043B51F8043B40F8043B56
:100CA00051F8043B40F8043B51F8043B40F8043B46
:100CB000403ABDD2303211D351F8043B40F8043BE6
:100CC00051F8043B40F8043B51F8043B40F8043B26
:100CD00051F8043B40F8043B103AEDD20C3205D3F6
:100CE00051F8043B40F8043B043AF9D2043208D0EE
:100CF000D2071CBF11F8013B00F8013B01D30B8860
:100D000003806046704700BF082A13D38B078DD03D
:100D100010F003038AD0C3F10403D21ADB071CBF0F
:100D200011F8013B00F8013B80D331F8023B20F879
:100D3000023B7BE7043AD9D3013A11F8013B00F8B2
:100D4000013BF9D20B7803704B7843708B7883703A
:100D5000604670474FEA410C7FEA6C5C02D150EA72
:100D6000013C0AD14FEA430C7FEA6C5C02D152EAA3
:100D7000033C02D14FF0000070474FF00100704774
:100D80004FEA410212F5001215D211D56FF47873B3
:100D9000B3EB625212D94FEAC12343F0004343EA56
:100DA000505311F0004F23FA02F018BF4042704731
:100DB0004FF00000704750EA013005D111F00040BB
:100DC00008BF6FF0004070474FF00000704700BF51
:100DD0002DE9F04F07468C460846099E15463C46CD
:100DE0001946002B40F0C6808242B2FA82F746D9FB
:100DF0004FB1C7F1200E24FA0EFE00FA07F3BD40F2
:100E00004EEA030CBC404FEA15481FFA85FEBCFBB6
:100E1000F8F9220C08FB19C309FB0EFA42EA034356
:100E20009A4528D9EB1809F1FF3004D29A4502D926
:100E3000A9F102002B44A3EB0A03A4B2B3FBF8F21E
:100E400008FB123302FB0EFE44EA0344A64514D904
:100E50002C1902F1FF3303D2A64501D9931E2C446D
:100E6000A4EB0E0443EA00401EB1FC4000233460B2
:100E70007360BDE8F08F4846DDE71346F0E702B93E
:100E8000FFDE87BB831A01214FEA154EAAB2B3FBDE
:100E9000FEFC200C0EFB1C330CFB02F840EA034363
:100EA000984563D9EB180CF1FF3004D2984502D96C
:100EB000ACF102002B44A3EB0803A4B2B3FBFEFC8D
:100EC0000EFB1C330CFB02F244EA0344A2424FD94E
:100ED0002C190CF1FF3304D2A24202D9ACF1020367
:100EE0002C44A41ABEE7C7F1200C20FA0CF800FA33
:100EF00007F324FA0CFCBD404CEA03024FEA154EFE
:100F0000ABB2B8FBFEFC110C0EFB1C800CFB03F912
:100F100041EA0040814504FA07F423D928180CF16E
:100F2000FF3104D2814502D9ACF102012844A0EB83
:100F3000090092B2B0FBFEFC0EFB1C000CFB03F898
:100F400042EA004398450FD9EB180CF1FF3204D266
:100F5000984502D9ACF102022B44A3EB080342EA04
:100F6000014191E76146E2E76246F6E76046A2E7A3
:100F70006346B6E7834205D90EB1C6E90070002189
:100F8000084676E7B3FA83F181B9834201D3BA42C6
:100F90000AD8BC1A60EB030301209C46002E68D0DF
:100FA000C6E9004C002164E70846F7E7C1F1200CD0
:100FB0008B4022FA0CF41C4302FA01F500FA01F30B
:100FC00027FA0CF220FA0CFB4FEA14491343BBFB3F
:100FD000F9F81FFA84FE09FB18BB1A0C08FB0EFA7D
:100FE00042EA0B42924507FA01F73ED9A21808F1EE
:100FF000FF3004D2924502D9A8F102002244A2EBAC
:101000000A029BB2B2FBF9F809FB182208FB0EFE9C
:1010100043EA024296452AD9A21808F1FF3304D2C6
:10102000964502D9A8F10203224443EA0040A0FBFE
:101030000593A2EB0E029A42CE46984602D306D101
:101040004F4504D2B9EB050E63EB0408013886B1B5
:10105000B7EB0E0362EB080707FA0CFCCB404CEA37
:101060000303CF40C6E900379CE74046C7E7434645
:10107000DBE73146FDE600002DE9F04F89B0DFF8EF
:1010800010A150460AF02FFE78B10FF2FC09D9E901
:101090000089DFF800B1DAF808403921E3685046EA
:1010A0009847014648B13C4802E0DAF800103B4856
:1010B00009B0BDE8F04F04F059BA0D21236904AA24
:1010C00050469847014630B91021236906AA504678
:1010D0009847014628B1324804F048FA09B0BDE803
:1010E000F08F0AF026FF0A220023FFF7F7FC3C24CA
:1010F0004FF47A75B0FBF5F105FB1100B1FBF4F28A
:10110000B2FBF4F304FB121104FB132202900191D1
:10111000009210215A46234804F04EFA0598FFF732
:1011200061FA42464B46FFF7F1FB044604980D4630
:10113000FFF758FA02460B4620462946FFF706F904
:10114000044607980D46FFF74DFA42464B46FFF717
:10115000DDFB064606980F46FFF744FA02460B46AB
:1011600030463946FFF7F2F82246CDE900012B461A
:101170000C490D4804F0FAF9002144F6206003F010
:10118000D5FC88E7AFF300800000000080842E418A
:1011900030C1000879CB000850CB000838CB0008DC
:1011A00069CB0008680B00208BCB00080000000012
:1011B0002DE9F34706460F4602F0D6FE4FF001092F
:1011C000804630683579D0F810A0836801A95B6843
:1011D0009847044648B9DAF80020019B09FA05F55A
:1011E00053402B4214BF0124002402F0BDFE002C0A
:1011F000A0EB080113DBB1F5FA5F10D8003C18BF73
:101200000124BC42DDD00A4807A3D3E90023A1FB97
:101210000001FFF763FC40B202B0BDE8F0874FF079
:10122000FF30F9E7AFF3008000B4C4040000000011
:1012300040420F00000000002DE9F04F016C9DB00E
:1012400016461F46CDE90267299C824649B1426C89
:101250004A60012393408B6008F07AF80023CAF8B3
:101260004030B7F10008B4BF012300232360764B60
:10127000BCBF28F00048CDF80C8033EA080300F02A
:10128000AC80DDE902340022184621460023CDE976
:101290000801FFF793FC054670B1289A01231360FB
:1012A0002A9B002B00F0F08268481860431E0693CA
:1012B00006981DB0BDE8F08F1AAB01931BAB0093ED
:1012C0005046DDE9082308F065FB5FEA18548346C1
:1012D00040F09980DDE91A542C4404F23243202B6B
:1012E00040F3B883C3F1400304F2124008FA03F854
:1012F00026FA00F048EA0000FFF764F90123013CF8
:10130000A1F1F8710F93524B0022FFF71DF848A38B
:10131000D3E90023FFF7D0F947A3D3E90023FFF770
:1013200015F8064620460F46FFF75CF944A3D3E9BB
:101330000023FFF7C1F902460B4630463946FFF756
:1013400005F806460F46FFF71BFD002281460023E5
:1013500030463946FFF73CFC002840F088822C1BC1
:10136000631EB9F1160F049300F27582394B03EB3B
:10137000C903D3E90023DDE90801FFF729FC0028B0
:101380006ED000230E93631E002B09F1FF39C0F2CB
:10139000688200230A93B9F1000F67DA0A9BCDF83F
:1013A0002C90A3EB09030A93C9F100030D93269B2C
:1013B000092B4FF0000963D8052B40F34983043B08
:1013C00026930024269B023B032B00F24E86DFE887
:1013D00013F052044F0446042704289A42F20F7374
:1013E000C8F31308136058EA06031AD12A9B002B8E
:1013F00000F05286184B069308332A9A0698136019
:101400001DB0BDE8F08FDDE90812C2F313030846F2
:1014100043F07F510F95A4F2FF341A9D41F440111F
:1014200071E72A9B002B40F0EA830C4B06933FE7C1
:1014300061436F63A787D23FB3C8608B288AC63FDA
:10144000FB799F501344D33F0000F07F61C900082F
:101450000000F83FE0C40008A8C90008A4C90008BB
:10146000631E002BC0F275840E900A90049BCDF889
:101470002C904B44049300230D93269B092B9BD95E
:101480000023CDE9263301244FF0FF330C9407935A
:10149000079B16930021CAF84410504607F032FF0C
:1014A0000690002800F0EA85069BCAF84030079BAA
:1014B0000E2B00F21D81002C00F01A810B990029DF
:1014C00040F34984B44B01F00F0203EBC2030A4618
:1014D000D205D3E900454FEA211640F10284AF4B13
:1014E000DDE90801D3E90823FFF710FACDE910017F
:1014F00006F00F064FF0030886B1A84FF30709D591
:1015000020462946D7E90023FFF7D6F808F101085D
:1015100004460D46761007F10807EFD1DDE910010A
:1015200022462B46FFF7F2F9CDE912010E9B53B18B
:10153000DDE912459A4B002220462946FFF748FB79
:10154000002840F016854046FFF74CF8DDE91223ED
:10155000FFF7B2F8934B0022FEF7F8FE079B064612
:10156000A1F15077002B00F0A9800B9B1793079BEC
:101570001093DDE91245069B29462046CDE9146704
:101580005F1CFFF7FDFB1099834B03EBC10353E98D
:10159000021200F13006CDE91212FFF723F80246DD
:1015A0000B4620462946FEF7CFFE0D460C99DDE995
:1015B0001223F6B20446002900F088847A490020FC
:1015C000FFF7A4F9DDE91423FEF7BEFEDDF818C02D
:1015D00002460B46CDE912238CF8006022462B46CA
:1015E000FFF714FB002840F0BC84CDF86490CDF8E0
:1015F00050B0CDF860A04FF00008DDE912ABB9465D
:101600002CE0109B08F10108984580F20785674B94
:10161000504659460022FFF74FF8644B002282469D
:101620008B4620462946FFF747F80F460646FFF748
:10163000A7FB0546FEF7D6FF02460B463046394665
:10164000FEF782FE303509F8015B52465B460446E0
:101650000D46FFF7BDFA002840F0D88422462B46FD
:101660004F490020FEF770FE52465B46FFF7B0FA86
:101670000028C6D0179CDDF850B0DDF860A0069AAF
:101680004E46013402E0964200F0A284374616F836
:10169000013D392BF7D00133DBB233700294BCE14A
:1016A0004046FEF79FFFDDE91223FFF705F83D4BAB
:1016B0000022FEF74BFE0646A1F150773C4B00227C
:1016C000DDE91201FEF740FE32463B4604460D4678
:1016D000FFF79CFA8046002840F08984324607F1E3
:1016E000004320462946FFF773FA002840F028837C
:1016F0001B9B002BC0F290800B9A0E2A00F38C806B
:10170000254B03EBC203D3E90089279B002B1BDA8F
:10171000079B002B18DC40F01183254B404600222C
:101720004946FEF7C9FF02460B46DDE90801FFF70F
:1017300059FADDF81C804446002800F0B382279B4C
:10174000069F6FEA0309B4E2DDE9084542464B46CD
:1017500020462946FFF7DAF8FFF712FB0746FEF7A7
:1017600041FF42464B46FEF7A7FF069E0B46024648
:1017700029462046FEF7E8FD07F1300306F8013B55
:10178000079B012B00F04E83CDF810A00127CDF868
:1017900008B09A462BE000BFE0C40008B8C40008B7
:1017A0000000F03F00001C400000E03F000024402B
:1017B0000000144042464B4620462946FFF7A6F853
:1017C000FFF7DEFA8346FEF70DFF42464B46FEF773
:1017D00073FF01370B46024629462046FEF7B4FD4B
:1017E0000BF13003574506F8013B00F01683A64B7A
:1017F0000022FEF761FF0022002304460D46FFF79A
:10180000DDF90028D6D00B9BDDF808B0DDF810A07C
:1018100001330293374600E10C9A002A3AD0269A07
:10182000012A40F37C82079B5E1E0D9BB342C0F2EF
:1018300052829E1B079B002BC0F22F83049A1A44EE
:1018400004920A9A15461A440A920121504607F05A
:1018500027FE044621E001230E93631E002BBFF6F2
:1018600098ADC4F101030A930023049393E548461D
:10187000FEF7B8FE32463B46FFF7A0F900287FF49A
:101880006EAD09F1FF396AE5804B069306981DB0ED
:10189000BDE8F08F0D9E0A9D0C9C002D0CDD049977
:1018A00000290B4608DD0A9AA942A8BF2B46D21A86
:1018B000ED1ACB1A0A9204930D9BCBB10C9B002B13
:1018C00000F04082002E0FDD21463246504607F0E0
:1018D000C3FE5A4601460446504607F00FFE5946DD
:1018E0008346504607F034FD0D9B9A1B40F0CF8293
:1018F0000121504607F0D4FDB9F1000F804600F3F6
:10190000AE80269B012B40F37F8100260120B9F198
:10191000000F40F0AF80049A104410F01F0000F058
:101920008E80C0F12003042B40F3BA830A9BC0F1E0
:101930001C00034402440A93054404920A9B002BB2
:1019400005DD59461A46504607F0E6FE8346049BDD
:10195000002B05DD41461A46504607F0DDFE804665
:101960000E9B002B40F02F81079B002B40F316812C
:101970000C9B002B40F099800B9B01330293069E39
:10198000079F012507E0594600230A22504607F029
:10199000E9FC013583464146584607F005F9BD424A
:1019A00000F1300306F8013BEDDB079A002AC8BFBF
:1019B0001546069AD8BF01251544002204925946BF
:1019C00001225046079307F0A7FE4146834607F0E1
:1019D0001BFF002840F3918115F8013C069A013D58
:1019E00004E0AA4200F0948115F8013D392B05F17D
:1019F0000107F6D001332B704146504607F0A8FC92
:101A00005CB1049B2BB1A34203D01946504607F0AA
:101A10009FFC2146504607F09BFC5946504607F074
:101A200097FC00233B70289B029A1A602A9B002B8C
:101A30003FF43EAC06981F601DB0BDE8F08F1C203F
:101A40000A9B03440A93049B03440544049375E7EB
:101A50000124B7E4C3F1200306FA03F04CE4014685
:101A60004A46504607F0F8FD269B012B804640F37E
:101A70009E810026D8F8103008EB8303186907F020
:101A8000C1FCC0F1200046E70000244060C9000806
:101A9000214600230A22504607F064FC169B002BC7
:101AA000044640F3D6820B970793002D00F30C8178
:101AB000002E40F0D5812646029BDDF8189007994C
:101AC00003F0010209F1FF331944269B0C921343E2
:101AD0000A9108934146584607F066F8214602905D
:101AE000584607F091FE324607464146504607F0F9
:101AF000ABFE029BC26805463033002A40D1014646
:101B00005846079307F080FE29460490504607F098
:101B10001FFC049A079B1AB90899002900F08682D5
:101B200009F10101002F0D46C0F2598126980743A3
:101B30000C98384300F05381002A00F3B2810A9ACE
:101B400089F80030914500F0B281594600230A22FD
:101B5000504607F007FCB442834621464FF000038D
:101B60004FF00A02504613D007F0FCFB3146044602
:101B700000230A22504607F0F5FBA9460646A9E7CE
:101B800001465046049307F0E3FB049B0122C7E79C
:101B900007F0E8FBA946044606469BE7269B022B76
:101BA0006FDC0C9B002B80D10B9B414601335846C8
:101BB000029306F0F9FF069D00F13003002205F8BC
:101BC000013B0492FBE64146584607F01DFE002803
:101BD000BFF6CAAE594600230A22504607F0C2FBA0
:101BE0000B9B5F1E0C9B8346002B7FF451AF169B13
:101BF000002B40F326820B9A02920793BFE6AF4B6D
:101C000006930333FFF7F9BBDDE9021200297FF4E5
:101C10007CAEC2F31303002B00F0D480029E75E665
:101C200001230C93279B0B9A134416930133012B2A
:101C30001D460793B8BF01250021172DCAF844108F
:101C40007FF72BAC012204235B0003F11400A842B0
:101C5000114602F10102F7D9CAF844101DE401232C
:101C60000C93279B002B43DD169307931D46E3E758
:101C700000230C93D6E700230C93F2E7169B0B97F7
:101C80000793079B002B7FF45AAD4146052250462F
:101C900007F068FB01468046584607F0B5FD00286E
:101CA0007FF74DAD0B9B069F03F10109312307F828
:101CB000013B09F1010341465046029307F048FBFE
:101CC000002C7FF4A6AEA8E621462A46504607F02F
:101CD00023FD0446ECE60D9B0D96F31A994400266D
:101CE000A8E5DDE908234FF00208CDE9102303E45D
:101CF000012327930793FFF7CBBB03D1079BDB0798
:101D00003FF56AAE2F4615F8013D302BFAD073E649
:101D1000029B069A01330293312313706CE60F9AEB
:101D2000002A00F0228103F23343049A0D9E1A44E4
:101D300004920A9A15461A440A9286E54FF0000862
:101D40004446FCE459460D9A504607F085FC83460C
:101D5000CEE50E9085E500F033810B9A584B544246
:101D600004F00F0203EBC203D3E90023DDE908010D
:101D7000FEF7A2FC2411CDE9120100F07281514D51
:101D800000234FF00208E60706D5D5E90023FEF749
:101D900093FC08F101080123641005F10805F2D154
:101DA000002B3FF4C3ABCDE91201FFF7BFBB029B91
:101DB000002B7FF45EAEDDE90212C2F31303002BA9
:101DC0007FF457AE404E1640002E3FF49FAD0A9B65
:101DD00001330A93049B01330493012696E5002AFC
:101DE0000F4612DD594601225046049307F094FC39
:101DF0004146834607F008FD0028049B40F300811C
:101E0000392B00F0EB80029B313389F800300B9BBB
:101E10000494013302933446EEE55F46DDF810A0EA
:101E2000DDF808B00B9B0133029302461C460B46BB
:101E3000FEF78CFA02460B46CDE9042342464B4698
:101E4000FEF7E4FE40B9DDE9040142464B46FEF7E9
:101E5000B5FE18B1F90701D5069A17E43746DCE557
:101E60006168504607F04EFA0546002800F00D81E3
:101E7000236902339A0004F10C010C30FEF7D0FE06
:101E800029460122504607F047FC064614E659460B
:101E9000504607F0E1FB83462AE50A9B079A9D1A04
:101EA000D3E4392B0F4600F099800133ADE70B9A4C
:101EB000049401320292344681E500BFA4C90008AF
:101EC000E0C40008B8C400080000F07FDDE9140198
:101ED000FEF7F2FB069B1E70109B012BCDE9120151
:101EE00000F0B580109E069B1E44764B00222046D3
:101EF0002946FEF7E1FB0D460446FEF741FF80460A
:101F0000FEF770FB08F1300802460B4620462946D2
:101F1000FEF71AFA07F8018BB74204460D46E4D1E2
:101F2000DDE91278684B002238464146FEF70EFA8A
:101F300022462B46FEF74CFE00285CD13A4643462B
:101F400061490020FEF700FA22462B46FEF75EFEAE
:101F500000283FF4CDAB3746013E17F8013C302B4B
:101F6000F9D0179B0133029357E51A9BC3F136034F
:101F7000DBE6079B002B3FF493AB169B002B7FF710
:101F8000B7AB0B9A1093013A4E4B179220460022A2
:101F90002946FEF791FB04460D4608F10100CDE904
:101FA0001245FEF71FFB22462B46FEF785FB474BEB
:101FB0000022FEF7CBF90646A1F15077FFF7D9BA18
:101FC000DDE908344FF00208CDE91234FFF7AEBA6C
:101FD00001343123FFF761BB09F101050B9B049428
:101FE000013302933923344689F80030F6E44FF088
:101FF0000008444656E6179C069A0134FFF746BB94
:102000007FF403AFDA077FF500AFF9E6DDE9173AB1
:102010000133DDF850B002934F46FEE4DDF86490E2
:10202000DDF850B0DDF860A0FFF762BB392BD3D0EC
:10203000002FC8BF029B4F46C8BF313307F8013B92
:10204000E5E6269B022B3FF719AE0B97ACE53E4623
:1020500066E7269B022B3FF711AE169B0B97079363
:1020600023E54FF00208FFF761BA0024CAF84440A4
:102070002146504607F046F90690B0B9144B154872
:1020800000224FF4D57108F043FD114B11482A4648
:1020900040F2EA2108F03CFD0F4B0693FFF708B928
:1020A0003FF44CACC0F13C00CAE4069BCAF8403097
:1020B00001224FF0FF33279416930C920793FFF7FA
:1020C00017BB00BF000024400000E03F00001C40A0
:1020D000B4C90008C8C90008A8C900080B680133C2
:1020E0000B60014B1B68184790020020014B1860E1
:1020F000704700BF900200201FB5002402460B4627
:10210000009403A90248039400F064F804B010BDE1
:10211000DD200008F0B5084E026803460A270020BB
:10212000114601320C78A55D6D0701D41960F0BD30
:1021300007FB00403038F3E71DC800082DE9F84FD1
:1021400015469A46D378224A13F802B06F2B804680
:102150000F460BF0030B29D024D8582B14BF0A26A6
:102160001026DDF828903246002340463946FEF717
:10217000B5FC092AD4B21ED83034B045E4B277F1A8
:10218000000309F8014D01D3D14511D82B789B06E6
:1021900005D5082E15D1AB7843F00803AB7048463F
:1021A000BDE8F88F03F0F703702BD7E70826D8E7D0
:1021B00080460F46D7E7BBF1010F0CBF37345734C9
:1021C000DBE7102EEBD1AB7843F01003E6E700BF5E
:1021D0001DC800082DE9F04F81469BB08A46154680
:1021E0001C460026287810B9304600F0C7BD6B1C8D
:1021F0002528029306D05146C8470028C0F2BE8564
:10220000013626E2182200210CA803F051F96B7860
:10221000252B59D06A1C174612F8013B2B2B00F0D6
:102220008B8079D8202B00F08C80232B00F08E80BF
:102230009DF8383003F04402442A03D16FF386132B
:102240008DF838309DF838300A9743F080038DF8C8
:1022500038303B782A2B7ED19DF8393043F001038A
:102260008DF839307B1C0A931A782E2A9DF8392074
:102270000CBF0121002161F341028DF839200BD1FF
:102280005A1C0A925A782A2A7BD19DF8392042F0AA
:1022900004028DF8392002331A4612F8010B6C281B
:1022A00000F0CF807DD8682800F084806A2800F094
:1022B000D2804C2800F0D6809DF839206FF3C602FA
:1022C0008DF839201A4680E0AA1C02928DF83B3026
:1022D0009DF83930DF0740F1708154F804BBBBF141
:1022E000000F07DA9DF8382042F004028DF83820FC
:1022F000CBF1000B580740F1698154F8048BB8F119
:10230000000F80F268819DF839306FF341038DF83A
:1023100039304FF0FF385EE12D2B06D0302B87D1BE
:102320009DF8383043F0400303E09DF8383043F027
:1023300004038DF838306EE79DF8383043F0080319
:10234000F7E79DF8383043F01003F2E79DF8383096
:1023500043F02003EDE70AA8FFF7DCFE0A9BBB422F
:1023600081D09DF838100F90C1F3400242EAD0723C
:10237000520062F07F0201F07D010A438DF838209F
:1023800071E70AA8FFF7C6FE9DF838301090C3F336
:10239000400242EAD07060F341038DF838300A9B66
:1023A0007AE774289DF8391059D07A2884D10B46E1
:1023B000062141E0597868299DF839103AD1012267
:1023C00062F3C6018DF839109A1C134613F8012BDD
:1023D0000293782A8DF83B2000F2C580572A4ED808
:1023E000412A04D0A2F14503022B00F2BC809DF8E3
:1023F0003A3002F0DF020421A2F1410861F3020346
:10240000D8F100029DF839108DF83A3042EB0802FD
:1024100062F3C7110A068DF83910CBB200F1CB80F8
:1024200003F07802182A40F09B806FF3C6038DF802
:10243000393082E00B46022161F3C6038DF8393052
:10244000C3E759786C299DF8391001D10422B7E708
:102450000B460321F0E79DF839300521ECE70B46E8
:102460000721E9E7BDF8383023F4F04323F00203F5
:1024700043F4804343F00203ADF83830A5E7A2F1FE
:102480005803202B6FD801A151F823F03F250008F5
:1024900067250008672500086725000867250008EC
:1024A00067250008672500086725000867250008DC
:1024B000EF230008672500083F25000811250008C4
:1024C000EF230008EF230008EF230008672500082A
:1024D0001125000867250008672500086725000802
:1024E00067250008752500083F2500089925000884
:1024F000672500086725000899250008672500085A
:102500003F25000867250008672500083F250008CB
:102510009DF83A30012161F302038DF83A309DF8BD
:10252000393003F07803402B02BF9DF8381041F09A
:1025300001018DF83810632A05D0002306E09DF8CC
:102540003A300221E7E7003B18BF01239DF838200D
:10255000C2F340010B4363F341028DF83820B7E624
:1025600013F0380FE9D09DF8383043F001038DF8AF
:102570003830E2E79DF83A30032262F302038DF827
:102580003A309DF8393003F07803A3F1400CDCF1C8
:10259000000343EB0C03D9E79DF83A30032262F3C2
:1025A00002038DF83A309DF8393013F0780F14BFDC
:1025B00001230023CAE70123C8E79DF93820002A38
:1025C000B4BFDDF83CB04FF0FF3B93E699077FF5D1
:1025D000A0AEDDF840809DF839100023CDE90F331F
:1025E0009DF83A3003F00702042A09D18A0707D47C
:1025F0009DF93920002AB4BF4FF00D084FF00608AE
:1026000003F00703012BC1F3C30134D1CB1E042B0C
:1026100021D8DFE803F003090920200054F8043B27
:10262000DA17CDE90C3206E0073424F00704F4E8A9
:102630000223CDE90C239DF83870BB0759D0029BCB
:102640002A465146484608F0C8FF0028C0F2968343
:102650000644029DC6E554F8043B01294FEAE372A3
:10266000CDE90C3202D19DF93030D9E70229E2D10F
:10267000BDF93030D4E7022B29D1CB1E042B13D85F
:10268000DFE803F0030A0A12120022680C9200230A
:10269000201D0D930446CEE7E01D20F00700F0E872
:1026A0000223CDE90C23F5E754F8043B0C930129F0
:1026B0004FF000030D9305D19DF830300C930023AB
:1026C0000D93B8E70229B6D1BDF83030F6E7042BF8
:1026D00009D1E31D23F0070303F10804D3E9002324
:1026E000CDE90C23A7E7032B04BF54F8043B0C935C
:1026F000A1E79DF83B20782AABD8572A00F28C80BE
:10270000252A00F0D380242AA3D9412A03D0A2F19C
:102710004503022B9DD8DDE90C13002BC0F2B681D6
:10272000380700F1B58117F0100718BF2027C3F351
:102730000A55C3F31303CDE90813002D40F0AA8115
:1027400051EA030014BF01200020DB0243EA515389
:10275000C902462A45EA010E43EAE57C08BF662223
:102760005EEA0C0CCDE9081300F00282002840F06C
:10277000CA81DDE908014FF0000C41F00041A5F2EB
:10278000FE35099163464FF0050E15F1020FC0F2B8
:10279000C181BCF1000F01D0CDE90801002DDDE9B8
:1027A000081000F3CC8109980899C5F1040C1C3578
:1027B00000FA05F5ACF1200E21FA0CF120FA0EFE1C
:1027C000294341EA0E0120FA0CF0CDE9081002F08D
:1027D000DF01472940F0D381DD1C02DB984580F200
:1027E000CA81023AB8F1000FD2B201DD08F1FF3818
:1027F0009DF83810880600F1C281B8F1000FD4BFEF
:1028000000210121662A039140F0BB8113EB0805EA
:1028100040F1B9810025B9E1A2F15803202B3FF620
:1028200018AF01A050F823F02F2A00085326000803
:102830005326000853260008532600085326000894
:1028400053260008532600085326000817270008BF
:1028500053260008D9280008CF29000817270008A8
:10286000172700081727000853260008CF2900085B
:102870005326000853260008532600085326000854
:10288000652A00082F2A0008332A0008532600086A
:1028900053260008B3280008532600082F2A0008F2
:1028A00053260008532600082F2A000851461046D8
:1028B000A2E4B8F1000F0C9A09DB414610460392DE
:1028C00002F0BEFE039A0027151862B9C1E6104651
:1028D0000392FDF775FCF5E70C9B8DF84C30002753
:1028E0000DF14D0513AAAB1A07B101339DF83A005B
:1028F000C10640F1378202330F9940060B4444BFB2
:1029000010995B18BBF1000F23DDABEB030B9DF8B7
:1029100038305907C3F380081BD4580640F136827B
:10292000002F00F03682514638460392C8470028EF
:10293000C0F22482039A474601364FF030085E44C5
:102940005B46002BA6EB0B000BF1FF3B00F30E8266
:10295000064647B1514638460392C8470028C0F2A0
:102960000D82039A01369DF83A30590640F165828E
:102970009DF93930002BA6EB020680F2198217462A
:10298000B846F31917F8010B702840F00582109F24
:102990001E461F44BB1B002B00F348822B464246B9
:1029A0005146484608F019FE0028C0F2E78130443D
:1029B00006468344ABEB0603002B7FF74AAE514635
:1029C0002020C8470028C0F2D9810136F2E73D0730
:1029D0002BD417F0100718BF2027DDE90C23002B9C
:1029E00005DA524263EB4303CDE90C232D270DF1A9
:1029F000650300930EAADDE90C0113ABFFF79EFB04
:102A00000246B8F1000F0DF16505FFF65EAF9DF8C7
:102A10003810AB1A6FF3861198458DF838107FF691
:102A200054AFA8EB03030F934FE72B27D5E70027FD
:102A3000DDE70C98002800F091810DF1650300930B
:102A40000EAA13AB0021FFF779FBBDF83A3003F073
:102A5000EF0343F4F04343F010030246ADF83A307D
:102A60000027CEE70C9B07293FF6F3ADDFE801F026
:102A70000C04060C08080C0C1E70EAE51E80E8E544
:102A8000F217C3E90062E4E51E60E2E52D274EE699
:102A90002B274CE640F2FF70854231D10132B94814
:102AA000D2B20B43125C02F003021BD1012A11D1F6
:102AB00049238DF84C304E238DF84D3046238DF848
:102AC0004E309DF838306FF386138DF838300DF1A5
:102AD0004F0507E769238DF84C306E238DF84D3094
:102AE0006623ECE7012A07BF4E2341226E236122B1
:102AF0000CBF8DF84C308DF84C308DF84D20DEE752
:102B0000002022E6013D49185B41002BFADACDE9AD
:102B100008132EE6400840EAC1704908B1F1333F7E
:102B2000AC4605F10105F5D20EFB01F5A0FB0E0147
:102B30002944013B0CF102054FF0010C25E602315E
:102B400040F10000CDE9081008A8CDE9032308F002
:102B500015FD049B039ADDE90810013D0133491876
:102B60004041002805F1FF35F9DACDE9081015E6F6
:102B700000231D4617E6A8EB0308662238E600216D
:102B800040E608F10105102DA8BF1025102107917E
:102B900000204FF00061CDE90A01DDE90A10A5B976
:102BA000089D4919099D40EB0505B5F1805F1BD2D1
:102BB000CDE90815662A40F09980002B23DC3021EE
:102BC0008DF84C100DF14D052FE0490841EAC07118
:102BD0004008CDE90A100AA8CDE90423013D08F018
:102BE000CDFCDDE90423D8E7490841EAC57108A80E
:102BF0006D08CDE90423CDE9081508F0BFFC059B5D
:102C0000049A0133D6E713AD079900290BDD07A914
:102C100008A8CDE9042308F0C9FC059B05F8010BC1
:102C2000013B049AF0D10F9300239DF838108906D8
:102C300002D4B8F1000F1DDD2E2105F8011B9BB158
:102C4000B8F1000F16DD59424145A8BF41469DF835
:102C50003A000F910029A8EB0108D4BF00210121FF
:102C600061F345108DF83A00B8F1000F02DD0799C5
:102C7000002956DC0399002963D1CDF8408002F089
:102C8000DF01452921D1002B2946B8BF5B4201F85D
:102C9000022BB4BF2D222B22632B6A7009DD642026
:102CA000B3FBF0F202F1300CE91C85F802C000FB26
:102CB00012330A200D46B3FBF0F200FB123302F18F
:102CC000300C303305F802CB4B700F9B002B43DCEC
:102CD000109B002BD4BF002301239DF83A2063F3FF
:102CE000861200238DF83A202B70FBE507A908A86F
:102CF000CDE9042308F05AFCDDE904239DF83810DF
:102D00008DF84C00302818BF03F1FF33880602D439
:102D1000B8F1000F12DD2E218DF84D100DF14E058A
:102D2000A2E707A908A8CDE9042308F03FFC08F1B1
:102D3000FF38DDE9042305F8010B95E70DF14D059A
:102D400098E700211091284615F8011D3029FAD086
:102D50002E2918BF054692E70123BEE70A4D074614
:102D60006A1FC0E5010748BF0133C5E5514640462B
:102D70000392C8470028039ABFF6E2AD1BB0BDE836
:102D8000F08F00BF1CC80008ACCB00084FF0200833
:102D9000D5E54FF03008D2E55146C8470028BFF6C8
:102DA000EFADEBE751460392C8470028039AE5DBF5
:102DB0001078374BC35C5B07174606EB020802F13D
:102DC0000102EFD49DF83A300F9E990607D4B04423
:102DD000002EA8EB060206F1FF360FDC904638788D
:102DE0002E2808D15146C8470028C7DB002E08F11D
:102DF000010809DC0137A8EB07060EE05146302038
:102E0000C8470028E4DAB9E751463020C847013EF8
:102E1000EAE75146C8470028B0DB1D4AB846F31917
:102E200017F8010B125C5207F3D4B0E5514630207D
:102E3000C8470028A2DB0136ACE5D80601D4190743
:102E400007D5514630200392C847002896DB039AE5
:102E500001369DF83A30DB0608D59DF83B00039219
:102E60005146C847002889DB039A01360F9F374433
:102E7000BB1B002B01DC2B4692E551463020039210
:102E8000C8470028FFF67AAF039A0136F0E700BF83
:102E90001DC800084FF01002EFF3118382F312886F
:102EA000BFF36F8F83F31188BFF36F8F024B034A19
:102EB0001A600020704700BFD002002000093D00CA
:102EC000014910220A60704710ED00E072B64040E0
:102ED00080F31188BFF36F8FBFF34F8F30BF62B69F
:102EE000BFF36F8F704700BF43B2002B08DB012296
:102EF00000F01F0002FA00F05B09024A42F82300CA
:102F0000704700BF00E100E043B2002BA8BF03F10F
:102F1000604301F10101B8BF064B4FEA0111ACBF9C
:102F200003F5614300F00F00C9B2B4BF195483F830
:102F30000013704714ED00E030BFFFF7FDBF00BF86
:102F40000F4A08B50F4B22F07F029A60BFF34F8FF4
:102F5000BFF36F8FD3F8882022F47002C3F8882063
:102F6000EFF3148323F0040383F31488BFF36F8F0C
:102F700001F030F901F058FE00F0CAF901F06EF9E5
:102F80000000000800ED00E0094A0A49936809685A
:102F90009967094958674B6843F080534B60002399
:102FA00083F31188BFF36F8F9368986F704700BFEA
:102FB000FC0A002018C8000800ED00E012498A68E9
:102FC0004FF030001044EFF3098C80E8F01F102020
:102FD00080F31288BFF36F8F0C4F4FF000668A6941
:102FE0008A603E60506F0023536780F3118804B5F8
:102FF000104600F0D1F9BDE8044002F1300090E83D
:10300000F01F8CF309887047FC0A002004ED00E0F3
:103010001EF0040F0CBFEFF30880EFF30980816905
:1030200011F8021C0229FFD001B508F0F1FA01BD28
:1030300042F8203C009B42F81C3C0A49019B42F8A4
:10304000183C029B42F8143C21F001014FF08073C0
:1030500042F8043C42F8081C0023203A026543670A
:10306000704700BF69B50008094A0346906870B10F
:1030700013F1160F406E05D0A0F140029A4205D818
:10308000834203D2814228BF00207047002070474E
:10309000FC0A002008B5094B98600D46144600F064
:1030A0007BF9204685F30988002163B681F31188F6
:1030B000BFF36F8F0022002308F056FAFC0A0020AD
:1030C00001B5EFF30580A0F110004FEAC0000449FC
:1030D000014409C99847BDE801400249084700007A
:1030E00048C10008E9300008044B99689869884293
:1030F00003D003494FF080520A607047FC0A002059
:1031000004ED00E038B51C4B14469A6A9A6A9A6A34
:103110000546900720D5586B9A6A12061CD519B13E
:103120009A6A22F080029A629A6A9A6A9A6AD20627
:1031300015D49B6A9B0712D400200F4B9A6A920603
:1031400042BF5A6A22F400525A629A6A42F0FF025F
:103150009A620023237038BD6FF01500E4E7064B38
:103160005B681905E8D52946FFF77EFF0028E3D004
:1031700080F309880220E0E700ED00E00D4B9A6A39
:103180009A6A9A6A920508D59A6B9A6A120404D5CB
:1031900018B19A6A22F400429A62064B9A6A9A6AB5
:1031A000D20558BF9A6A9A6A002042F47F429A6216
:1031B0000870704700ED00E0F0B54B4B5B688BB0DA
:1031C0000C46C3F30803002585F31188BFF36F8F06
:1031D00002F07F41B1F17F4F11D102F00C010829BB
:1031E0000DD0160701D4044601250022033B8DF8BB
:1031F0000720032B71D8DFE803F0045B5F632C46E4
:10320000F3E7394AD36A13F0020366D1D16A002981
:1032100015DBD16A490012D5A16931F8020C4DF6CF
:10322000027188420AD092F8281039B30DF10702D2
:1032300001212046FFF766FF034600E023689DF862
:103240000720CAB902AE04F120072068616832463F
:1032500003C20834BC421646F7D1099A002D3ED06D
:10326000C2F3080121B96FEA52226FEA42220992A1
:1032700002A9184608F0CAF90BB0F0BD92F829105F
:1032800029B10DF107010120FFF778FFD4E7518D37
:1032900089B20029D3D0916A916A916A916A916A40
:1032A000916A916A6FEA01416FEA11419162C6E742
:1032B0000DF107020021BCE70DF107010020E3E753
:1032C000094B9A6A9A6A9A6A9A6A9A6A9A6A9A6A8E
:1032D0006FEA02426FEA12429A620023AFE722F4D9
:1032E000FF7222F00102C2E700ED00E0024A5369DA
:1032F00043F010035361704700ED00E0EFF30880E6
:10330000EFF3098101B57246FFF756FF01BD00BF1B
:10331000044800231021C21801335B2B82F80013EC
:10332000F9D1704700E100E0102080F311880848CF
:103330004FF40461401880F30988EFF314800221F0
:10334000084380F31488BFF36F8FFFF7F9FD000087
:1033500040110020084B9B6883420BD1EFF305839B
:1033600043B1064B5A6842F080525A605A6A22F4BE
:1033700000425A6201F0F8BBFC0A002000ED00E0B8
:10338000024B034A0348012100F06EB800000520FB
:1033900000000020A8C50008426E054B403A1A60A4
:1033A000044A4021C3E901121846012100F066B821
:1033B000C809002000000B15F0B51F4F00268E42F3
:1033C00001DB1046F0BD44689CB353B104F1FF3CEF
:1033D00014EA0C0F18D11F2C16D905681CEA050F2A
:1033E00012D1202C0568D0F808C0D2B20FD9B4F1A0
:1033F000004F0ED8013CB4FA84F4C4F11F046400F9
:10340000072A4CEA040406D96FF01502D9E708240C
:10341000F6E73E24F4E725F01F05154345F01005B7
:1034200044F00104C7F89820C7F89C500132C7F84F
:10343000A04001360C30C2E700ED00E0044B05224D
:10344000C3F89420BFF34F8FBFF36F8F704700BF57
:1034500000ED00E0BFF35F8F024B0022C3F8942021
:10346000704700BF00ED00E010B5034C0123227847
:10347000FFF7A2FF207010BD780B002008B5094AA5
:1034800000231278FFF798FF10F1160F02D0064ABA
:10349000072800DD08BDC2F89800C2F8A03001304E
:1034A000F6E700BF780B002000ED00E01449086843
:1034B000082810B521D8FFF7CDFF124C496800222B
:1034C000904201F10C0105D10F4B1870FFF7B6FFC8
:1034D000002010BDC4F8982051F80C3C23F01F03C5
:1034E000134343F01003C4F89C3051F8043C43F0FC
:1034F0000103C4F8A0300132E2E74FF0FF30E8E703
:10350000B4C5000800ED00E0780B0020014B186006
:10351000704700BF98020020F8B5084F06460D46D8
:103520000024AC4208DA3B6898470A28305504F179
:10353000010401D00D28F4D12046F8BD94020020EA
:10354000F8B50A4F0D46461EC0F10104A3199D426D
:1035500001DC2846F8BD73780A2B02D13B680D20A8
:1035600098473B6816F8010F9847EFE7980200204C
:1035700008B502480521FFF7E3FFFEE7ADCB0008E1
:1035800010B5074C2368C2180648C0F1005101F578
:10359000A0218A423ABFC01822604FF0FF3010BD10
:1035A000D4090020801900202DE9F8430D4F04466E
:1035B0000E4615464FF0010802F10409B44201DB42
:1035C000BDE8F8837A6908FA04F333EA020207D106
:1035D0007B6155F834301BB159F8341020469847B8
:1035E0000134EBE700040140044A012311688340E1
:1035F0000B431360024B1856FFF776BC00040140E2
:10360000E0CB00081F2807DC044901220B6802FAFE
:1036100000F023EA00000860704700BF000401408A
:1036200003290FD8DFE801F0020F1723154B012201
:10363000996802FA00F021EA00019960DA6822EA4A
:103640000000D8607047012303FA00F00D4B9A6820
:1036500002439A60F2E7012303FA00F0094BDA68AB
:103660000243DA609A6822EA0000986070470123FA
:1036700003FA00F0034B9A6802439A60DA68104339
:10368000DFE700BF00040140074B10B5044653F8C4
:10369000300028B943F8341003EBC4035A6010BD5E
:1036A0006FF00F00FBE700BFD8090020034B00229A
:1036B00043F8302003EBC0035A607047D80900205C
:1036C000024B1868C0F38020704700BF0010024012
:1036D0000B68013B072B14D80B4A32F91300002862
:1036E00011DB4968CBB203F1804303F50433C1F326
:1036F00002421868C1F304218A4002431A60002084
:1037000070476FF08500704722CB00081A4B10B548
:1037100014461A680B68072B14D0082B09D88BB1F4
:10372000013B072B0ED8DFE803F0210D1E1E0D1400
:103730000D17582B0DD008D84C2B0AD0502B08D081
:10374000482B06D06FF085000FE05C2B01D0602B7A
:10375000F7E72260002008E008F00CF848B108F014
:1037600009F82060F6E70020206010BD034B2360BD
:10377000F0E76FF00400F8E7D00200200024F40026
:1037800070B5384C384E00F089F800F049FCA36859
:10379000364AC3F30313D35C20FA03F5B54202D8CB
:1037A000334800F08BFCFFF78BFF012807D023681C
:1037B00043F480732360FFF783FF0128FBD1A368E4
:1037C00003F00C030C2B1AD1A36823F0F003A360C1
:1037D000FFF776FF012807D0236843F48073236046
:1037E000FFF76EFF0128FBD1A36823F0030343F02A
:1037F0000103A360A36803F00C03042BFAD1236830
:1038000023F080732360E36823F4C00343F4800350
:10381000E36000F031F8236843F08073236023688D
:103820009B01FCD5A36823F0F003A360A36843F0D9
:103830000303A360A36803F00C030C2BFAD1B54279
:1038400002D90B4800F03AFC0A4B094A1A60A368F7
:1038500023F4E063A360A36823F46053A360002013
:1038600070BD00BF00100240FFB3C40450CC00087C
:1038700000B4C404D0020020054B0649DA681140A8
:10388000054A0A43DA60DA6842F08072DA6070470B
:10389000001002408C80FFF902140002064B9A6D62
:1038A00042F080529A659B6D82B003F08053019381
:1038B000019B02B0704700BF0010024008B5084BE2
:1038C0000848186008F00FFA38B10748FFF71EFEE5
:1038D0000548FEF70BFC002008BD6FF01200FBE767
:1038E000580A002000C10008ED3800080A2838B541
:1038F000074D044604D1286883680D215B6898470A
:1039000028688368E1B25B689847204638BD00BFED
:10391000580A002070B50546074C204608F0E3F928
:1039200030B1A368294620461B68BDE8704018479F
:103930006FF0120070BD00BFE0BF000808B5074A75
:10394000036958605368406843F4007353600C3057
:10395000FFF7E0FF00EAE07008BD00BF0070004024
:10396000F7B50C461146B1F5001F476802691E46BF
:1039700023D104F0030304339A000F23934043EA56
:103980009403DAB23349023251F82220190C02EAC8
:10399000134391FAA1F2B2FA82F2D340BA689A4282
:1039A00009D12046FFF72EFE2046FFF77FFE0021BB
:1039B0002046FFF735FE00253EE0B1F5800F42D0EE
:1039C00025492046FFF760FE054600283ED1234AE0
:1039D000BF6892E803006B4683E803001846FFF7D0
:1039E00099FFC0B904F0030104318B000F21994005
:1039F00041EA9401CAB2920002F1804202F580329B
:103A00000B0C906893FAA3F3B3FA83F320EA114105
:103A10009F400F439760B6F1806F10D0B6F1C06F32
:103A20000FD0B6F1007F14BF002102212046FFF71E
:103A3000F7FD2046FFF7D8FD284603B0F0BD012171
:103A4000F4E70321F2E76FF08505F5E76FF00F0566
:103A5000F2E700BF0000014087B90008B0C40008C9
:103A6000102930B5046910D12178637803EB012364
:103A70001BB20A2093FBF0F100FB113311600E49D9
:103A80001BB24B435360002030BDA378E07800EBBD
:103A90000320C0F30E030A2593FBF5F421B205FBC6
:103AA0001433054C11601BB2634300045360EAD524
:103AB000494211605B42E5E7A0860100F7B5036962
:103AC00046685C6877680D46204608F00CF9F8B146
:103AD000A368DB68E3B101AA39462046984700286D
:103AE00016DB3668104B019C9E424FEA550011D1FF
:103AF000002319464FF480772A46E4FB0701FCF7C0
:103B0000EDFF0A4BA0F540729A4201D805B1F06072
:103B100003B0F0BD3368044423F40043B4FBF5F470
:103B2000A4B23360F460F3E700800040FFFC0F00B4
:103B30002DE9F34144680769404DD4F804807D6065
:103B40000646284608F0CFF8002872D0AB68284611
:103B50001B68414698470546002861D1014601AAE5
:103B6000A06908F0A7F8002866DB019B2A461979AE
:103B7000186800F00FFA00285EDB206821680368EF
:103B800023F00103036050E8003F43F00C0340E8DA
:103B90000032002AF7D12369022B45D0012B0ABF3E
:103BA0004FF4805000204FF4C0620B6823F0805324
:103BB00023F4B053024313430B604B6823F4405388
:103BC0004B60237B2BB173681A68936843F440738E
:103BD000936039683046FFF771FF227D23681AB180
:103BE0009A6842F008029A60627D1AB15A6842F4FB
:103BF00000425A60A27D1AB15A6842F480325A607B
:103C0000E27D1AB15A6842F400325A601A6842F0F2
:103C100001021A60DA699102FCD5DA695202FCD518
:103C2000284602B0BDE8F0814FF480504FF4806226
:103C3000BBE76FF01205F3E70546F1E7E0BF0008C8
:103C40002DE9F0470B7945680669012B0C461CD01D
:103C5000022B0CBF4FF480684FF0000894F80590D9
:103C6000A779B9F1020F96BF494A4FF4005132F8D3
:103C70001910022F0CD0042F00F08480002B14BFE9
:103C80004FF4805E4FF0000E08E04FF4C068E5E7A7
:103C9000002B0CBF4FF0805E4FF0000EE279A3F1D5
:103CA000030A012A14BF4FF0000C4FF4407CBAF114
:103CB000010F6AD90BB1042F67D02B68DFF8D4A0AD
:103CC000534502D119F0FD0F5FD0012F5DD9042FAC
:103CD0005BD0C2B1304FBB4213D0A7F57447BB4293
:103CE0000FD007F58067BB420BD007F58067BB425A
:103CF00007D007F58067BB4203D007F54057BB42AA
:103D000043D1012A41D11A6822F001021A601A68CF
:103D100002F4C06290451FBF1A6822F4C06242EAF2
:103D200008021A605A6802F4405291421FBF5F684D
:103D300027F440570F435F601A6802F0102296453F
:103D40001FBF196821F0102141EA0E0119609A681D
:103D5000216802F4407294451FBF9A6822F44072B1
:103D600042EA0C029A603368994203D0FFF7A6FE3C
:103D7000236833602A68136843F00103136000204E
:103D8000BDE8F0874FF4805E88E76FF08500F7E7C5
:103D900032CB000800800040003801404FF0E023A3
:103DA00010B59A6919699869094B11F4803F09495E
:103DB00001D1824206D21A680C6822441A604FF080
:103DC000E02212691B680A681344181A10BD00BF6C
:103DD000F80A0020F40A0020094B102283F823205F
:103DE000084B41F63F721A60074B002018604FF0F5
:103DF000E0235A6198611A6942F007021A6170471C
:103E000000ED00E0F40A0020F80A002008B5FFF7F2
:103E1000C5FF0C4B0C4A186811680844106000225A
:103E20001A600A4A13684FF4FA51C01AB0FBF1F055
:103E300001FB0033136000F0D5FFBDE80840FFF739
:103E400053B900BFF80A0020F00A0020EC0A002055
:103E5000F8B5314C59B1421C09D14FF0E022136939
:103E600023F0010313614FF07F432360F8BD431C2F
:103E7000256822D0012823DDB0F5036F22DC471E20
:103E80004FF01003EFF3118683F31288BFF36F8FA7
:103E9000FFF784FF21494FF0E0230022D3F818C038
:103EA0000B6818441E4B08601A601E4B1A68831A70
:103EB0000BD54FF4806323601AE04FF40360DEE714
:103EC0000027DDE74FF40367DAE74FF4FA5E0EFBF5
:103ED000073303F5F953121A1F33B3FBFEF30EFB3E
:103EE0000323B3F5806FE4D90F4A9342E3D92260EC
:103EF0004FF0E022246893699C4538BFAC44013CF4
:103F0000ACEB030C5461604400249461086086F3B8
:103F10001188BFF36F8FA9E7F40A0020F00A002090
:103F2000F80A0020EC0A002000DCFF0010B54FF07A
:103F30001003EFF3118483F31288BFF36F8FFFF741
:103F40002DFF074B074A1B6812689B1A034484F332
:103F50001188BFF36F8F4FF4FA50B3FBF0F010BD30
:103F6000F00A0020EC0A002010B54FF01003EFF328
:103F7000118483F31288BFF36F8FFFF70FFF044B99
:103F80001B68184484F31188BFF36F8F10BD00BF06
:103F9000F00A00202DE9F047204F044600EBC1064F
:103FA0000025B44201D1002014E02268D10602F0BD
:103FB0001F0911D4656845F02005C2F3471AC2F302
:103FC00043220A2A27D857F82280B8F1000F11D1CE
:103FD0006FF01200BDE8F087B9F1100F08D0B9F109
:103FE000110FEAD165682B05E7D545F01005E4E728
:103FF0003025E2E7404607F076FE0028E8D04B4641
:104000002A460AF00F01404607F0D0FC002804F1D0
:104010000804C6DADEE76FF01500DBE7A8C7000882
:10402000224B9A68D96812F00C0205D00C2A15D1DF
:1040300001F00301012918D119681D48090755BF6E
:10404000D3F894101968C1F30321C1F3031150F898
:1040500021004AB30C2A09D000207047042A22D03C
:10406000082A144818BF002070470020DA6802F0C0
:104070000302022A15D00F49032A08BF0846D9684F
:10408000DA68C2F306224243D868C0F34160C1F344
:104090000211013001314000B2FBF1F2B2FBF0F04D
:1040A00070470548EBE70448704700BF0010024026
:1040B000D4C7000800127A000024F4001E4B421EF0
:1040C0009A4233D81D4B1B6803F4C063B3F5007FDD
:1040D0000FD11B4B98421AD81A4B984228D81A4B2A
:1040E000984227D8194B984294BF002301230020FF
:1040F00011E0174B98420CD8A3F5F403A3F59053A5
:10410000984215D8134B984214D8134BEBE704236D
:10411000EDE70023012011490A6822F007021A4343
:104120000A600A6802F00702934200D0012070473B
:104130000323DCE70223DAE7FFB3C4040070004086
:104140000090D003006CDC020048E8010024F40079
:1041500080BA8C01001BB700808D5B0000200240FC
:104160000E4B70B553F82040013053F82060A64242
:1041700000D870BDD4E900352846984765B1EB6892
:1041800030B10028B8BF4042FF28A8BFFF201870F8
:104190005A7842F001025A700834E8E704C800086F
:1041A00008B50A4B012202201A70FFF7D9FF00F070
:1041B000A5FE0320FFF7D4FF00F0EAF8FCF75CFF50
:1041C000034A137B23F00103137308BD7D0B00200A
:1041D0004009002008B50348034A0021121A07F0DD
:1041E000B3FD08BDC0080020800B002070B500237F
:1041F00086B00122CDE90423134E144D01930F2202
:10420000CDE902321249182303FB005506EBC01614
:1042100004464FF4C07000FB04110E4B00954FF4A0
:10422000A072304600F082F8737B0B482C7523F0A7
:10423000040373734FF4046303FB04041C44EE6033
:104240006C6006B070BD00BFC0080020FC0A0020F2
:10425000C00F002051BD00084011002080B52C4B3C
:10426000A6B083F308882B4D2B4E6B692B4F43F47C
:10427000007300246B61F02385F82230EC772C76F4
:104280006C76AC7685F820406B6A43F4E0236B6271
:10429000FFF72CF8FEF714FE4FF0FF33AB62EB6232
:1042A000FFF704F9FFF76CF840F20113ADF8243082
:1042B00006ABB360CDE91F44229407F013FD2046FE
:1042C000FFF74EFF0120164DFFF74AFF00F09AFB63
:1042D000144BB5610593012313490094CDE90343C1
:1042E0004FF480623B46CDE90144284600F01EF8B9
:1042F0006A7B064622F0040228466A7307F071FDC5
:104300002046FFF773FF3A4631462846FEF7C2FEC5
:104310008019002000ED00E0FC0A0020A141000807
:104320004009002060CC0008800B00202DE9FF41EF
:104330000E9E0673042646730D9E867300F1580583
:104340000F46D61DC0E916550C9A002526F0070623
:104350004037C0E90655C0E919768560C573C56662
:1043600006F1400802920B9A019288440A9A009240
:1043700042460446FEF75CFE044B65659B6803B14C
:104380001B6F2367404604B0BDE8F081FC0A0020A3
:10439000F0B5224C224D87B02646AE4204F13004DF
:1043A0000BD300F043F91D4C1E4F0A26AC4220D31C
:1043B00007B0BDE8F04000F009BB54F8043C059399
:1043C00054F8103C049354F8143C039354F8183CEC
:1043D000029354F81C3C019354F8203C009354E998
:1043E0000C0154E90A23FFF7A1FF54F8303C5E6545
:1043F000D2E7626A531C09D022EAE27282FB0623EA
:1044000052EA0301206803D100F0F6F93034CDE719
:104410003946183000F06CFCF8E700BF980800201F
:104420009808002003BE00082DE9F3410446174612
:104430001E464FF01003EFF3118883F31288BFF389
:104440006F8FC368324A6BB180689168884219D017
:1044500057EA060318D188F31188BFF36F8F6FF006
:104460000F000CE0916891F90E1021610133E360B7
:104470009368A36088F31188BFF36F8F002002B0A8
:10448000BDE8F0812169F0E791F90E1090F90E3046
:104490009942A8BF19466FF07E029142B8BF1146FB
:1044A0008B422EDD07F060FC0546CDE90076194809
:1044B0002246414600F0FCF90028E0D04FF01003FE
:1044C000EFF3118683F31288BFF36F8F236821699E
:1044D0009C420AD04BB193F90E309942A8BF1946BD
:1044E0006FF07E039942B8BF1946A06807F03CFC04
:1044F00000B945B10748314600F086F86FF00A0070
:10450000BDE70025D1E786F31188BFF36F8FF5E78C
:10451000FC0A00207E0B0020836870B504466BB354
:10452000194A926893422CD1C368012B03D9013BED
:10453000C360002070BD4FF01003EFF3118583F3CB
:104540001288BFF36F8F0169806807F00DFC204669
:1045500007F0A3FC0026A06050B190F90E20226164
:10456000866707F03EFC0948294600F04DF8E0E771
:10457000E06085F31188BFF36F8FDAE76FF0150005
:10458000D8E74FF0FF30D5E7FC0A00207E0B002073
:1045900038B5074D2C6854B1FFF7C8FC054B0444EF
:1045A0001C6128680021BDE8384007F0A4BC38BD74
:1045B000280B0020FC0A002010B54FF01003EFF389
:1045C000118483F31288BFF36F8F0C4A00231361A9
:1045D00000284FF00A0300FB03F309480ADC0360DC
:1045E000084B90681960FFF7D3FF84F31188BFF37D
:1045F0006F8F10BD022BB8BF0223F0E7FC0A00202A
:10460000280B0020240B002049B9EFF3058030B9B6
:10461000054B9A699B689A4201D0FEF7B5BC81F3BD
:104620001188BFF36F8F7047FC0A00204FF0100312
:10463000EFF3118183F31288BFF36F8F044B9A68F5
:10464000D37B013BD37381F31188BFF36F8F704726
:10465000FC0A002038B502460C480D4D07F0BBFBA4
:10466000044600B9EC68AB684AB95A7BD20606D159
:10467000A26922B9DA897F2A01D9AB6138BD9C428F
:1046800002D02046FFF784FFAC61F7E7180B00204B
:10469000FC0A002070B590F90D20437B002A0146EA
:1046A00004DA03F07F03437307F06DFB4B7B154A7D
:1046B00063F07F034B73D2E9073402F11C05AB4270
:1046C0001BD0D3B191F90E6093F90E0086420FD042
:1046D000801B00280CDD5868C1E90030016059607A
:1046E0009068431A5842BDE870405841FFF7B2BF86
:1046F000A34202D01B68002BE6D1C1E9005421601F
:104700001162EDE7FC0A002038B54FF01003EFF31B
:10471000118583F31288BFF36F8F174B174A9C687C
:1047200011688C4207D12046FFF732FF85F31188CC
:10473000BFF36F8F38BD00211160114A1268C2B1FA
:10474000E2897F2A15D8627BD20612D10D4A94F9EC
:104750000E10126891420CDB0B4A944209D01A6980
:10476000824203DC2046FFF795FFDCE7121A1A614C
:10477000DCE70022FBE700BFFC0A0020200B002042
:10478000280B0020240B0020C008002070B490F9F2
:104790000D20437B002A2ADBDA0628D1826932BB4E
:1047A000144A63F07F034373D2E9073402F11C0516
:1047B000AB4217D0B3B190F90E6093F90E108E4250
:1047C0000BD0891B002908DD5A68C0E9003210604F
:1047D000586070BC0020FFF73DBFA34202D01B68A9
:1047E000002BEAD1C0E9005420601062F1E770BCF0
:1047F000704700BFFC0A002010B54FF01002EFF325
:10480000118482F31288BFF36F8F427B510704D467
:1048100084F31188BFF36F8F10BD22F0040242733E
:10482000FFF7B4FF21460248BDE81040FFF7ECBE99
:104830007E0B002008B590F90D20437B002A01462D
:1048400004DA03F07F03437307F09DFA044B986882
:10485000431A58425841BDE80840FFF7FBBE00BF6D
:10486000FC0A00202DE9F041064615461C464FF093
:104870001003EFF3118783F31288BFF36F8F07F0F4
:10488000E2FA87F31188BFF36F8FB4F1FF3F08BFDF
:10489000B5F1FF3F08D02A46234606F11800034928
:1048A000BDE8F04100F024BABDE8F08103BE000885
:1048B00010B5074B9868074B0C4618601146DDE9A8
:1048C0000223FFF7CFFF2046BDE81040FEF75CBB98
:1048D000FC0A0020200B0020F8B504464FF010031E
:1048E000EFF3118683F31288BFF36F8F437BDA06F1
:1048F00049B233D182698ABB03F07F03437307F067
:1049000042FA437B174A817363F07F034373104677
:1049100050F81C3F83421BD0D3B1176A93F90E5055
:10492000A94210D06D1A002D0DDD5A68C4E900327D
:1049300014605C600120FFF78DFE012086F3118872
:10494000BFF36F8FF8BDBB4202D01B68002BE5D1CF
:10495000136AC4E900031C601462EBE7A173002032
:10496000ECE700BFFC0A002070B50446183007F0E1
:10497000ACFA4FF01003EFF3118683F31288BFF304
:104980006F8F94F90D20637B002A05DA03F07F0313
:104990006373204607F0F7F90B4D637BA86843F07B
:1049A00010036373031B58425841FFF753FE86F30D
:1049B0001188BFF36F8FAB68A34203D1BDE870408D
:1049C00007F0FFB970BD00BFFC0A002010B54FF022
:1049D0001003EFF3118483F31288BFF36F8F084B3A
:1049E0009A68D37B0133D3730020FFF733FE84F33F
:1049F0001188BFF36F8FBDE8104007F0E2B900BF28
:104A0000FC0A0020044B002103F11C02C3E9072229
:104A10000846FFF7D1BD00BFFC0A0020F8B54FF0F3
:104A20001003EFF3118583F31288BFF36F8F1A49D8
:104A30008868437B03F07F03437307F0A4F98B6816
:104A40005A7B084662F07F025A7350F81C2F82424C
:104A50001CD0DAB10F6A93F90E6092F90E40A642AB
:104A60000FD0A41B002C0CDD5168C3E900210B60A2
:104A700053600120FFF7EEFD2846BDE8F840FEF741
:104A800083BABA4202D01268002AE6D10A6AC3E9A0
:104A9000000213600B62ECE7FC0A002050EA0103FD
:104AA0002DE9F04105460E4603D1FFF7B7FF002080
:104AB00033E06FF00104241A4FF0FF3363EB01037E
:104AC000012C73F1000302DA07F02FFA44194FF0BA
:104AD0001003EFF3118883F31288BFF36F8F104F29
:104AE000104BB8681860FFF7A5FEB8680E492A4653
:104AF0003346183000F0FCF8BA68537B43F01003DB
:104B000053734046FEF740FA07F00FFA201A63EBA2
:104B10000303012873F10003C9DBBDE8F08100BF86
:104B2000FC0A0020200B002003BE0008B1F1FF3F6B
:104B300008BFB0F1FF3F08B506D1074B9868FFF7F3
:104B400013FF4FF0FF3008BDFFF7A8FF0A22002334
:104B5000C117FBF7C3FFF6E7FC0A0020014B98687A
:104B6000704700BFFC0A00202DE9F04104464FF0D9
:104B70001003EFF3118683F31288BFF36F8F037B6B
:104B8000D9070BD586F31188BFF36F8F404080F3B0
:104B900011884FF0040002DFBDE8F081437B1A0763
:104BA00004D586F31188BFF36F8FF5E723F0200259
:104BB00042F00801D20920D14173A36813B1204605
:104BC00007F0E9F804F1180007F07FF904F158073D
:104BD0004FF00008A56DBD4200D0B5B90120FFF728
:104BE00039FD104B9B68A342DBD1EFF30583002B0B
:104BF000D7D13046FEF7C8F9D3E703F05F0343F09F
:104C00000803437307F0BFF8D7E7284607F0C3F857
:104C100005F1180007F059F9C5F878802846FFF724
:104C2000B5FDD7E7FC0A002008B50648064A074943
:104C3000121A07F08BF8BDE80840054A05490648F6
:104C400007F084B800000020C0080020ACCC0008A9
:104C500000000000ACCC000800000020034B1B68E3
:104C60000BB9FFF763B90020704700BF2C0B002081
:104C7000104B10B51C689C4208BF0024FFF7EEFFE4
:104C8000A4B1D4E904321B1A62EBE070B3F1004F17
:104C900070F100020ADA0028ACBF18460020064B6B
:104CA0001B6913B19842A8BF184610BD6FF00040B1
:104CB000F5E700BFD4020020FC0A002030B50368ED
:104CC00068B10A4A5268904209D043B1D3E904213D
:104CD000D0E90445121941EB0501C3E904214268FA
:104CE00013605A600023C0E9003330BDD4020020B5
:104CF000B3F1FF3F08BFB2F1FF3FF8B504461F46CE
:104D0000154667D081604FF01003EFF3118683F3EF
:104D10001288BFF36F8F6FF00102531B4FF0FF3CFF
:104D20006CEB0703002B1BDB2B4BD3E90013521A50
:104D30006CEB0303551B63EB0703012D73F10002BA
:104D4000BCBF01250023C0E904532448D0E9003C3E
:104D5000834218D1C4E9000CCCF80040446026E03E
:104D6000FFF77CFF013547F100072D1847EBE0778F
:104D7000C4E90457E9E7521A65EB07059C45C4E905
:104D80000425E7D01B68002BE4D0D3E90417D4E94D
:104D900004258A4275EB070EEDDA8A1A67EB0505E2
:104DA000C3E904255A68C4E9003214605C600368F2
:104DB00083420BD09C4209D1FFF75AFF18B1084B30
:104DC0001B69834202D00021FFF742F886F3118865
:104DD000BFF36F8FF8BD00BFC0090020D4020020D0
:104DE000FC0A00202DE9F8430546FFF78DFC4FF043
:104DF0001003EFF3118483F31288BFF36F8F244EF7
:104E0000DFF890803560244DD8F8000032684045C6
:104E1000D5E9001E4FEAE2770BD050B1D0E9043C4F
:104E20009A4277EB0C0916DA9B1A6CEB070CC0E977
:104E3000043C52184EEB0707C5E9002700253560F2
:104E4000FFF716FF2946FFF703F884F31188BFF335
:104E50006F8FBDE8F88359184EEBE377D31A3360B0
:104E600000220023C0E90423C5E90017FFF726FF4D
:104E700084F31188BFF36F8F836898474FF0100356
:104E8000EFF3118483F31288BFF36F8FBCE700BF89
:104E90002C0B0020D4020020C009002010B54FF0D8
:104EA0001003EFF3118483F31288BFF36F8FFFF7C2
:104EB0003DF8054AD2E90031C01841F1000184F300
:104EC0001188BFF36F8F10BDC009002038B50446AC
:104ED00078B1FFF749F805460648074AA4FB0001E8
:104EE0000023FBF7FBFD0446FFF73EF8431BA342FC
:104EF000FAD338BD00B4C40440420F00024A03494B
:104F0000034806F024BB00BFABCC000865CC00080A
:104F100085CC0008024B0146186800F00BB800BFB2
:104F2000EC060020024B0146186804F067B800BF89
:104F3000EC0600202DE9F04F01F10B06162E83B090
:104F4000054624D8102900F2A88000F003FB1026A3
:104F500018224FF0020CB34F3A44A2F108035468F0
:104F60009C4200F0A7806368E268A16823F0030315
:104F70002344CA6091605A6842F0010228465A6090
:104F8000083400F0EDFA204603B0BDE8F08F36F0AB
:104F9000070600F18280B1427FD800F0DBFAB6F557
:104FA000FC7FC0F09D81730A7ED0042B00F26981E2
:104FB000B30903F1390C03F138044FEACC03994FDC
:104FC0003B44A3F108005B68984206D10CE000293D
:104FD00080F21881DB68984206D05A6822F00302FA
:104FE000911B0F29F3DDA4463C69DFF83C82444560
:104FF0006CD0636823F0030EAEEB06030F2B00F3B7
:105000008081002BC7E9048880F26F81BEF5007FA4
:1050100080F016814FEADE03796801334FEA5E1EA5
:10502000012202FA0EF257F83300A0600A4307EBA0
:10503000C3010839E1607A6047F83340C4604FEA41
:10504000AC0301209840904247D8104206D12CF082
:10505000030C400010420CF1040CFAD007EBCC0A10
:105060005346E146D9680EE04A6822F00302A2EBFB
:10507000060EBEF10F0F0C46C96800F30F81BEF19A
:10508000000F80F220818B42EED109F1010919F065
:10509000030F03F10803E5D16AE100240C23204645
:1050A0002B6003B0BDE8F08F4FF400734FF0400C5D
:1050B0003F2484E7D468A24208BF0CF1020C7FF4BD
:1050C00052AF3C69DFF86081444592D17A684FEA7B
:1050D000AC03012098409042B7D9BC68636823F0C4
:1050E00003094E4503D8A9EB06030F2B7ADCDFF842
:1050F0003CB14F4BDBF800201B680132334404EB1A
:10510000090A00F04B8103F580530F3323F47F68C5
:1051100028F00F084146284600F03CFA411C0246A0
:1051200000F00A81824500F20581424B1968414432
:105130001960084600F06881DBF800100193013126
:105140001BBFA2EB0A0A5044CBF80020186012F0F3
:10515000070B00F02F81CBF108010A44CBF58051F9
:1051600090440831A1EB0801C1F30B0A51462846CF
:10517000009200F00FFA421CDDE9002300F06B8181
:10518000801A00EB0A081968BA6048F0010051441F
:10519000BC425060196000F04381B9F10F0F40F23A
:1051A00041816068A9F10C0C2CF0070C00F00100A3
:1051B00040EA0C0060604FF0050E04EB0C00BCF1FF
:1051C0000F0FC0E901EE00F24E81506814461A4BF1
:1051D0001A688A4238BF1960184B1A688A4238BF69
:1051E0001960ABE0A21943F0010346F001066660C6
:1051F0002846BA60536000F0B3F90834204603B083
:10520000BDE8F08FD3E902411A44E1608C60516837
:1052100041F001012846516003F1080400F0A0F9B3
:10522000B1E600BFDC020020E4020020E40600201A
:10523000600B0020300B0020580B00205C0B00207E
:10524000BEF5206F4FEA5E226DD3142A00F2C380B0
:1052500002F15C03DB005B32F918FB580839994214
:1052600000F09F805A6822F00302724502D99B68C1
:105270009942F7D1D9687A68C4E902318C60DC6060
:10528000DDE6142B68D9542B00F2AE80330B03F10A
:105290006F0C03F16E044FEACC0390E62846A56834
:1052A000A31946F001066660E9608D604EF00101C9
:1052B000C7E90433C3E90288596044F802E000F00A
:1052C0004FF908345FE622442846536843F001034F
:1052D000536054F8083FD9608B6000F041F952E602
:1052E0004FEAD60C06F1080235E6A6442846DEF859
:1052F000043043F00103CEF80430083400F030F9F4
:1053000041E6A21943F0010146F001066660284615
:10531000C7E90422C2E90288516044F80E3000F067
:105320001FF908342FE64FEA9E1202F13903DB0021
:10533000383291E7BC4262D0BC68606820F0030854
:105340004645A8EB060302D80F2B3FF74BAF284684
:1053500000F006F9002416E603F15C0C03F15B048F
:105360004FEACC032BE65AF80839534540F09B80AE
:105370001CF0030F0CF1FF3CF5D17B6823EA00031E
:105380007B60400098423FF6A8AE18B9A5E6400001
:1053900009F104091842FAD0CC465FE603F110087F
:1053A000B8E690104FF0010E7A680EFA00F0024352
:1053B0007A6061E702EB08014942C1F30B0A5146EA
:1053C0002846009200F0E6F8431CDDE900237FF454
:1053D000D7AEDA46D7E6542A27D84FEA1E3202F172
:1053E0006F03DB006E3237E7B3F5AA7F27D8F30BE4
:1053F00003F1780C03F177044FEACC03DFE52B4B84
:1054000018684044186097E6CAF30B0CBCF1000F13
:105410007FF492AEBC68C84448F001006060D6E6F4
:105420001446D4E60123536091E7B2F5AA7F25D84C
:105430004FEADE3202F17803DB0077320CE740F20C
:105440005452934225D8B30C03F17D0C03F17C0434
:105450004FEACC03B3E5ABF1080BD844A8EB020844
:105460004FF0000A8FE604F108012846009303F08C
:10547000C5FDBC68009B60681968A8E640F25453FB
:105480009A420CD84FEA9E4202F17D03DB007C3247
:10549000E2E64FF47E734FF07F0C7E248FE54FF4ED
:1054A0007E737E22D8E67B686BE700BF300B00205E
:1054B000830730B548D0541E002A3FD0CAB20346F5
:1054C00001E0013C3AD303F8012B9D07F9D1032CED
:1054D0002DD9CDB245EA05250F2C45EA054536D92B
:1054E000A4F1100222F00F0C03F1200EE6444FEA63
:1054F000121C03F1100242E9045542E90255103230
:105500007245F8D10CF1010214F00C0F03EB0212FA
:1055100004F00F0C13D0ACF1040323F003030433A5
:10552000134442F8045B9342FBD10CF003042CB10A
:10553000CAB21C4403F8012B9C42FBD130BD644627
:105540001346002CF4D1F9E703461446BFE71A4688
:10555000A446E0E7014806F098B800BF980800208C
:10556000014806F098B800BF980800200FB400B5B5
:10557000074983B004AB086853F8042B8168019392
:1055800001F04CFD03B05DF804EB04B0704700BFC0
:10559000EC06002038B5074D0022044608462A6074
:1055A000FDF7EEFF431C00D038BD2B68002BFBD06D
:1055B000236038BD640B00200CB410B51F4B0029CC
:1055C0001C689CB035DB4FF40273ADF814300290C8
:1055D00006901FAB18D001394FF6FF720491079166
:1055E000ADF8162002A91E9A0193204600F03AF861
:1055F000421C01DA8B232360029B00221A701CB02C
:10560000BDE8104002B070474FF6FF720491079159
:10561000ADF8162002A91E9A0193204600F022F848
:10562000431C01DA8B2323601CB0BDE8104002B09C
:1056300070478B2323604FF0FF30F5E7EC06002026
:1056400071B1034600EB010C01E0634506D01A4638
:10565000013311780029F8D1101A7047181A7047D1
:10566000084670472DE9F04FD7B00C460C91914693
:105670000E93189003F0E2FD03681A931846FAF7A8
:105680009FFDA3891990180603D52369002B00F00C
:10569000B18700242DAB4D46CDE92B44CDE91B4409
:1056A000CDE91E4414942A9398461D94002309942E
:1056B0000024CDE916342B78DDF86090002B00F043
:1056C000E281AB4604E01BF8013F002B00F01A8199
:1056D000252BF8D1BBEB050640F018819BF8003074
:1056E000002B00F0D08100234FF0FF329BF80170B7
:1056F0008DF88B300A930BF1010B08929A462B24FC
:1057000020210BF1010BA7F120035A2B00F232816B
:10571000DFE813F0C30230013001BE023001300176
:1057200030016A00300130018A029A02300195028C
:10573000A40230019F025B005B005B005B005B002A
:105740005B005B005B005B00300130013001300129
:10575000300130013001C50130015B028500C50117
:10576000C501C5013001300130013001DF023001D7
:105770003001C60030013001300165023001CD0238
:10578000300130016107300130013001300130015A
:10579000300130013001C50130015B028700C501D5
:1057A000C501C5011B038700800030010E033001D5
:1057B000F602C800E4028000300165027D003C076B
:1057C00030013001400730017D00A7F13003002295
:1057D0001BF8017B02EB820203EB4202A7F13003CC
:1057E000092BF5D90A928EE7484603F027FD436856
:1057F0001E931846FAF7E4FC1F900646484603F04D
:105800001DFD83681D932021002E40F0DC859BF850
:10581000007076E79BF800704AF0200A71E74AF0C2
:10582000100A1AF0200F00F0BE810E9B073323F000
:1058300007031A465B6852F8084B0E921E46002B6F
:10584000C0F28085089B013301F003802AF0800AB2
:1058500054EA0603CDF81CA000F001850A2C76F16D
:10586000000380F0948730340123DDF81CA08DF80C
:1058700057410B930DF2571508990B989DF88B2003
:1058800081424FF00003B8BF01460D93079110937A
:1058900015931393002A7ED0079B013307937AE078
:1058A0004AF0100A1AF0200600F06D810E9B0733B3
:1058B00023F007035E6853F8084B0E932AF48063C5
:1058C0000793002300228DF88B20089A511C00F0CA
:1058D0004B82079921F0800A54EA060140F0428287
:1058E000002A40F0EF87002B40F0BD84079B13F0A7
:1058F00001030B9300F0538530238DF857310DF2DF
:105900005715B9E7BBEB050600F0BD802C9B33446F
:105910002C932B9B0133072BC8E900562B9305DCF6
:1059200008F10808099B33440993D7E60C992AAA81
:10593000484604F041F980B90DF1B408F2E70C993A
:105940002AAA484604F038F9002800F08D800D9B03
:105950001BB10D99189803F051FB0C9B9B8913F018
:10596000400F099B18BF4FF0FF330993099857B0B8
:10597000BDE8F08F002F00F0868000228DF8F470D3
:105980008DF88B20012307930D920B9308921092B0
:10599000159213923DAD1AF002030F9302D0079BAC
:1059A000023307931AF084032C9C129305D10A9BAF
:1059B00007995E1A002E00F3AE808AB12B9A0DF182
:1059C0008B0101320134C8F80010072A4FF00101A1
:1059D0002C942B92C8F8041000F36D8308F108088A
:1059E0000F9B83B12B9B23AA01330234C8F80020FC
:1059F000072B4FF002022C942B93C8F8042000F3DD
:105A0000668308F10808129B802B00F04982089BEE
:105A10000B9A9E1A002E00F38F821AF4807F40F0BA
:105A2000E6810B9BC8F804301C442B9BC8F800503F
:105A30000133072B2C942B9300F3EB8208F1080819
:105A40001AF0040F05D00A9B079A9D1A002D00F347
:105A50004A83DDE9093207998A42ACBF9B185B187B
:105A60000993002C7FF46BAF00232B930D9B1BB18C
:105A70000D99484603F0C2FA0DF1B4085D462B7843
:105A8000002B7FF41EAE2C9B002B3FF466AF0C9CCA
:105A900018982AAA214604F08FF8A3895FE70E9B85
:105AA000073323F00702F2E80234CDE9163424F07C
:105AB00000440E921E4618462146B84B4FF0FF3266
:105AC000FBF748F9002840F09184B44B304621465A
